{
  "_format": "hh-sol-artifact-1",
  "contractName": "Pharmaceutical",
  "sourceName": "contracts/Pharmaceutical.sol",
  "abi": [
    {
      "inputs": [],
      "stateMutability": "nonpayable",
      "type": "constructor"
    },
    {
      "anonymous": false,
      "inputs": [
        {
          "indexed": false,
          "internalType": "uint256",
          "name": "productNumber",
          "type": "uint256"
        },
        {
          "indexed": false,
          "internalType": "address",
          "name": "from",
          "type": "address"
        },
        {
          "indexed": false,
          "internalType": "address",
          "name": "to",
          "type": "address"
        },
        {
          "indexed": false,
          "internalType": "enum Pharmaceutical.State",
          "name": "stateChanged",
          "type": "uint8"
        },
        {
          "indexed": false,
          "internalType": "string",
          "name": "distributorName",
          "type": "string"
        },
        {
          "indexed": false,
          "internalType": "string",
          "name": "retailerName",
          "type": "string"
        }
      ],
      "name": "OwnershipTransferred",
      "type": "event"
    },
    {
      "anonymous": false,
      "inputs": [
        {
          "indexed": false,
          "internalType": "uint256",
          "name": "productNumber",
          "type": "uint256"
        }
      ],
      "name": "ProductCreated",
      "type": "event"
    },
    {
      "anonymous": false,
      "inputs": [
        {
          "indexed": false,
          "internalType": "uint256",
          "name": "productNumber",
          "type": "uint256"
        },
        {
          "indexed": false,
          "internalType": "uint256",
          "name": "shipmentDate",
          "type": "uint256"
        }
      ],
      "name": "ShipmentAdded",
      "type": "event"
    },
    {
      "inputs": [
        {
          "internalType": "uint256",
          "name": "_productNumber",
          "type": "uint256"
        },
        {
          "internalType": "uint256",
          "name": "_shipmentDate",
          "type": "uint256"
        }
      ],
      "name": "addShipmentDate",
      "outputs": [],
      "stateMutability": "nonpayable",
      "type": "function"
    },
    {
      "inputs": [
        {
          "internalType": "string",
          "name": "",
          "type": "string"
        },
        {
          "internalType": "uint256",
          "name": "",
          "type": "uint256"
        }
      ],
      "name": "batchIdToProductNumbers",
      "outputs": [
        {
          "internalType": "uint256",
          "name": "",
          "type": "uint256"
        }
      ],
      "stateMutability": "view",
      "type": "function"
    },
    {
      "inputs": [
        {
          "internalType": "string",
          "name": "_productId",
          "type": "string"
        },
        {
          "internalType": "string",
          "name": "_batchId",
          "type": "string"
        },
        {
          "internalType": "string",
          "name": "_drugName",
          "type": "string"
        },
        {
          "internalType": "string",
          "name": "_manufacturerName",
          "type": "string"
        },
        {
          "internalType": "uint256",
          "name": "_manufactureDate",
          "type": "uint256"
        },
        {
          "internalType": "uint256",
          "name": "_expirationDate",
          "type": "uint256"
        }
      ],
      "name": "createProduct",
      "outputs": [],
      "stateMutability": "nonpayable",
      "type": "function"
    },
    {
      "inputs": [
        {
          "internalType": "string",
          "name": "",
          "type": "string"
        },
        {
          "internalType": "uint256",
          "name": "",
          "type": "uint256"
        }
      ],
      "name": "distributorNameToProductNumbers",
      "outputs": [
        {
          "internalType": "uint256",
          "name": "",
          "type": "uint256"
        }
      ],
      "stateMutability": "view",
      "type": "function"
    },
    {
      "inputs": [
        {
          "internalType": "string",
          "name": "",
          "type": "string"
        },
        {
          "internalType": "uint256",
          "name": "",
          "type": "uint256"
        }
      ],
      "name": "drugNameToProductNumbers",
      "outputs": [
        {
          "internalType": "uint256",
          "name": "",
          "type": "uint256"
        }
      ],
      "stateMutability": "view",
      "type": "function"
    },
    {
      "inputs": [
        {
          "internalType": "string",
          "name": "",
          "type": "string"
        },
        {
          "internalType": "uint256",
          "name": "",
          "type": "uint256"
        }
      ],
      "name": "manufacturerNameToProductNumbers",
      "outputs": [
        {
          "internalType": "uint256",
          "name": "",
          "type": "uint256"
        }
      ],
      "stateMutability": "view",
      "type": "function"
    },
    {
      "inputs": [],
      "name": "owner",
      "outputs": [
        {
          "internalType": "address",
          "name": "",
          "type": "address"
        }
      ],
      "stateMutability": "view",
      "type": "function"
    },
    {
      "inputs": [
        {
          "internalType": "string",
          "name": "",
          "type": "string"
        }
      ],
      "name": "productIdToProductNumber",
      "outputs": [
        {
          "internalType": "uint256",
          "name": "",
          "type": "uint256"
        }
      ],
      "stateMutability": "view",
      "type": "function"
    },
    {
      "inputs": [
        {
          "internalType": "uint256",
          "name": "",
          "type": "uint256"
        }
      ],
      "name": "products",
      "outputs": [
        {
          "internalType": "uint256",
          "name": "productNumber",
          "type": "uint256"
        },
        {
          "internalType": "string",
          "name": "productId",
          "type": "string"
        },
        {
          "internalType": "string",
          "name": "batchId",
          "type": "string"
        },
        {
          "internalType": "string",
          "name": "drugName",
          "type": "string"
        },
        {
          "internalType": "string",
          "name": "manufacturerName",
          "type": "string"
        },
        {
          "internalType": "uint256",
          "name": "manufactureDate",
          "type": "uint256"
        },
        {
          "internalType": "uint256",
          "name": "expirationDate",
          "type": "uint256"
        },
        {
          "internalType": "address",
          "name": "currentOwner",
          "type": "address"
        },
        {
          "internalType": "enum Pharmaceutical.State",
          "name": "currentState",
          "type": "uint8"
        },
        {
          "internalType": "uint256",
          "name": "shipmentDate",
          "type": "uint256"
        },
        {
          "internalType": "string",
          "name": "distributorName",
          "type": "string"
        },
        {
          "internalType": "string",
          "name": "retailerName",
          "type": "string"
        }
      ],
      "stateMutability": "view",
      "type": "function"
    },
    {
      "inputs": [
        {
          "internalType": "uint256",
          "name": "_productNumber",
          "type": "uint256"
        }
      ],
      "name": "queryProduct",
      "outputs": [
        {
          "components": [
            {
              "internalType": "uint256",
              "name": "productNumber",
              "type": "uint256"
            },
            {
              "internalType": "string",
              "name": "productId",
              "type": "string"
            },
            {
              "internalType": "string",
              "name": "batchId",
              "type": "string"
            },
            {
              "internalType": "string",
              "name": "drugName",
              "type": "string"
            },
            {
              "internalType": "string",
              "name": "manufacturerName",
              "type": "string"
            },
            {
              "internalType": "uint256",
              "name": "manufactureDate",
              "type": "uint256"
            },
            {
              "internalType": "uint256",
              "name": "expirationDate",
              "type": "uint256"
            },
            {
              "internalType": "address",
              "name": "currentOwner",
              "type": "address"
            },
            {
              "internalType": "enum Pharmaceutical.State",
              "name": "currentState",
              "type": "uint8"
            },
            {
              "internalType": "uint256",
              "name": "shipmentDate",
              "type": "uint256"
            },
            {
              "internalType": "string",
              "name": "distributorName",
              "type": "string"
            },
            {
              "internalType": "string",
              "name": "retailerName",
              "type": "string"
            }
          ],
          "internalType": "struct Pharmaceutical.Product",
          "name": "",
          "type": "tuple"
        }
      ],
      "stateMutability": "view",
      "type": "function"
    },
    {
      "inputs": [
        {
          "internalType": "string",
          "name": "_productId",
          "type": "string"
        }
      ],
      "name": "queryProductByProductId",
      "outputs": [
        {
          "components": [
            {
              "internalType": "uint256",
              "name": "productNumber",
              "type": "uint256"
            },
            {
              "internalType": "string",
              "name": "productId",
              "type": "string"
            },
            {
              "internalType": "string",
              "name": "batchId",
              "type": "string"
            },
            {
              "internalType": "string",
              "name": "drugName",
              "type": "string"
            },
            {
              "internalType": "string",
              "name": "manufacturerName",
              "type": "string"
            },
            {
              "internalType": "uint256",
              "name": "manufactureDate",
              "type": "uint256"
            },
            {
              "internalType": "uint256",
              "name": "expirationDate",
              "type": "uint256"
            },
            {
              "internalType": "address",
              "name": "currentOwner",
              "type": "address"
            },
            {
              "internalType": "enum Pharmaceutical.State",
              "name": "currentState",
              "type": "uint8"
            },
            {
              "internalType": "uint256",
              "name": "shipmentDate",
              "type": "uint256"
            },
            {
              "internalType": "string",
              "name": "distributorName",
              "type": "string"
            },
            {
              "internalType": "string",
              "name": "retailerName",
              "type": "string"
            }
          ],
          "internalType": "struct Pharmaceutical.Product",
          "name": "",
          "type": "tuple"
        }
      ],
      "stateMutability": "view",
      "type": "function"
    },
    {
      "inputs": [
        {
          "internalType": "string",
          "name": "_batchId",
          "type": "string"
        }
      ],
      "name": "queryProductsByBatchId",
      "outputs": [
        {
          "components": [
            {
              "internalType": "uint256",
              "name": "productNumber",
              "type": "uint256"
            },
            {
              "internalType": "string",
              "name": "productId",
              "type": "string"
            },
            {
              "internalType": "string",
              "name": "batchId",
              "type": "string"
            },
            {
              "internalType": "string",
              "name": "drugName",
              "type": "string"
            },
            {
              "internalType": "string",
              "name": "manufacturerName",
              "type": "string"
            },
            {
              "internalType": "uint256",
              "name": "manufactureDate",
              "type": "uint256"
            },
            {
              "internalType": "uint256",
              "name": "expirationDate",
              "type": "uint256"
            },
            {
              "internalType": "address",
              "name": "currentOwner",
              "type": "address"
            },
            {
              "internalType": "enum Pharmaceutical.State",
              "name": "currentState",
              "type": "uint8"
            },
            {
              "internalType": "uint256",
              "name": "shipmentDate",
              "type": "uint256"
            },
            {
              "internalType": "string",
              "name": "distributorName",
              "type": "string"
            },
            {
              "internalType": "string",
              "name": "retailerName",
              "type": "string"
            }
          ],
          "internalType": "struct Pharmaceutical.Product[]",
          "name": "",
          "type": "tuple[]"
        }
      ],
      "stateMutability": "view",
      "type": "function"
    },
    {
      "inputs": [
        {
          "internalType": "string",
          "name": "_distributorName",
          "type": "string"
        }
      ],
      "name": "queryProductsByDistributor",
      "outputs": [
        {
          "components": [
            {
              "internalType": "uint256",
              "name": "productNumber",
              "type": "uint256"
            },
            {
              "internalType": "string",
              "name": "productId",
              "type": "string"
            },
            {
              "internalType": "string",
              "name": "batchId",
              "type": "string"
            },
            {
              "internalType": "string",
              "name": "drugName",
              "type": "string"
            },
            {
              "internalType": "string",
              "name": "manufacturerName",
              "type": "string"
            },
            {
              "internalType": "uint256",
              "name": "manufactureDate",
              "type": "uint256"
            },
            {
              "internalType": "uint256",
              "name": "expirationDate",
              "type": "uint256"
            },
            {
              "internalType": "address",
              "name": "currentOwner",
              "type": "address"
            },
            {
              "internalType": "enum Pharmaceutical.State",
              "name": "currentState",
              "type": "uint8"
            },
            {
              "internalType": "uint256",
              "name": "shipmentDate",
              "type": "uint256"
            },
            {
              "internalType": "string",
              "name": "distributorName",
              "type": "string"
            },
            {
              "internalType": "string",
              "name": "retailerName",
              "type": "string"
            }
          ],
          "internalType": "struct Pharmaceutical.Product[]",
          "name": "",
          "type": "tuple[]"
        }
      ],
      "stateMutability": "view",
      "type": "function"
    },
    {
      "inputs": [
        {
          "internalType": "string",
          "name": "_drugName",
          "type": "string"
        }
      ],
      "name": "queryProductsByDrugName",
      "outputs": [
        {
          "components": [
            {
              "internalType": "uint256",
              "name": "productNumber",
              "type": "uint256"
            },
            {
              "internalType": "string",
              "name": "productId",
              "type": "string"
            },
            {
              "internalType": "string",
              "name": "batchId",
              "type": "string"
            },
            {
              "internalType": "string",
              "name": "drugName",
              "type": "string"
            },
            {
              "internalType": "string",
              "name": "manufacturerName",
              "type": "string"
            },
            {
              "internalType": "uint256",
              "name": "manufactureDate",
              "type": "uint256"
            },
            {
              "internalType": "uint256",
              "name": "expirationDate",
              "type": "uint256"
            },
            {
              "internalType": "address",
              "name": "currentOwner",
              "type": "address"
            },
            {
              "internalType": "enum Pharmaceutical.State",
              "name": "currentState",
              "type": "uint8"
            },
            {
              "internalType": "uint256",
              "name": "shipmentDate",
              "type": "uint256"
            },
            {
              "internalType": "string",
              "name": "distributorName",
              "type": "string"
            },
            {
              "internalType": "string",
              "name": "retailerName",
              "type": "string"
            }
          ],
          "internalType": "struct Pharmaceutical.Product[]",
          "name": "",
          "type": "tuple[]"
        }
      ],
      "stateMutability": "view",
      "type": "function"
    },
    {
      "inputs": [
        {
          "internalType": "string",
          "name": "_manufacturerName",
          "type": "string"
        }
      ],
      "name": "queryProductsByManufacturer",
      "outputs": [
        {
          "components": [
            {
              "internalType": "uint256",
              "name": "productNumber",
              "type": "uint256"
            },
            {
              "internalType": "string",
              "name": "productId",
              "type": "string"
            },
            {
              "internalType": "string",
              "name": "batchId",
              "type": "string"
            },
            {
              "internalType": "string",
              "name": "drugName",
              "type": "string"
            },
            {
              "internalType": "string",
              "name": "manufacturerName",
              "type": "string"
            },
            {
              "internalType": "uint256",
              "name": "manufactureDate",
              "type": "uint256"
            },
            {
              "internalType": "uint256",
              "name": "expirationDate",
              "type": "uint256"
            },
            {
              "internalType": "address",
              "name": "currentOwner",
              "type": "address"
            },
            {
              "internalType": "enum Pharmaceutical.State",
              "name": "currentState",
              "type": "uint8"
            },
            {
              "internalType": "uint256",
              "name": "shipmentDate",
              "type": "uint256"
            },
            {
              "internalType": "string",
              "name": "distributorName",
              "type": "string"
            },
            {
              "internalType": "string",
              "name": "retailerName",
              "type": "string"
            }
          ],
          "internalType": "struct Pharmaceutical.Product[]",
          "name": "",
          "type": "tuple[]"
        }
      ],
      "stateMutability": "view",
      "type": "function"
    },
    {
      "inputs": [
        {
          "internalType": "string",
          "name": "_retailerName",
          "type": "string"
        }
      ],
      "name": "queryProductsByRetailer",
      "outputs": [
        {
          "components": [
            {
              "internalType": "uint256",
              "name": "productNumber",
              "type": "uint256"
            },
            {
              "internalType": "string",
              "name": "productId",
              "type": "string"
            },
            {
              "internalType": "string",
              "name": "batchId",
              "type": "string"
            },
            {
              "internalType": "string",
              "name": "drugName",
              "type": "string"
            },
            {
              "internalType": "string",
              "name": "manufacturerName",
              "type": "string"
            },
            {
              "internalType": "uint256",
              "name": "manufactureDate",
              "type": "uint256"
            },
            {
              "internalType": "uint256",
              "name": "expirationDate",
              "type": "uint256"
            },
            {
              "internalType": "address",
              "name": "currentOwner",
              "type": "address"
            },
            {
              "internalType": "enum Pharmaceutical.State",
              "name": "currentState",
              "type": "uint8"
            },
            {
              "internalType": "uint256",
              "name": "shipmentDate",
              "type": "uint256"
            },
            {
              "internalType": "string",
              "name": "distributorName",
              "type": "string"
            },
            {
              "internalType": "string",
              "name": "retailerName",
              "type": "string"
            }
          ],
          "internalType": "struct Pharmaceutical.Product[]",
          "name": "",
          "type": "tuple[]"
        }
      ],
      "stateMutability": "view",
      "type": "function"
    },
    {
      "inputs": [
        {
          "internalType": "string",
          "name": "",
          "type": "string"
        },
        {
          "internalType": "uint256",
          "name": "",
          "type": "uint256"
        }
      ],
      "name": "retailerNameToProductNumbers",
      "outputs": [
        {
          "internalType": "uint256",
          "name": "",
          "type": "uint256"
        }
      ],
      "stateMutability": "view",
      "type": "function"
    },
    {
      "inputs": [
        {
          "internalType": "uint256",
          "name": "_productNumber",
          "type": "uint256"
        },
        {
          "internalType": "address",
          "name": "_newOwner",
          "type": "address"
        },
        {
          "internalType": "string",
          "name": "_distributorName",
          "type": "string"
        }
      ],
      "name": "transferOwnershipToDistributor",
      "outputs": [],
      "stateMutability": "nonpayable",
      "type": "function"
    },
    {
      "inputs": [
        {
          "internalType": "uint256",
          "name": "_productNumber",
          "type": "uint256"
        },
        {
          "internalType": "address",
          "name": "_newOwner",
          "type": "address"
        },
        {
          "internalType": "string",
          "name": "_retailerName",
          "type": "string"
        }
      ],
      "name": "transferOwnershipToRetailer",
      "outputs": [],
      "stateMutability": "nonpayable",
      "type": "function"
    }
  ],
  "bytecode": "0x608060405234801561001057600080fd5b50336000806101000a81548173ffffffffffffffffffffffffffffffffffffffff021916908373ffffffffffffffffffffffffffffffffffffffff160217905550614abd806100606000396000f3fe608060405234801561001057600080fd5b50600436106101215760003560e01c8063a5260602116100ad578063c39e0b2b11610071578063c39e0b2b14610383578063c42904971461039f578063c4c612ff146103cf578063d572d142146103ff578063ffdaa5751461042f57610121565b8063a5260602146102bb578063a9a63cb3146102d7578063aaa1ee2d14610307578063b936846014610337578063ba7271791461036757610121565b8063677b32d5116100f4578063677b32d5146101d257806372091c16146102025780637acc0b20146102325780638698f7971461026d5780638da5cb5b1461029d57610121565b8063193d308a14610126578063226eab0c14610156578063557231a2146101725780636268f0f5146101a2575b600080fd5b610140600480360381019061013b9190613a5a565b61045f565b60405161014d9190613ddc565b60405180910390f35b610170600480360381019061016b9190613e2a565b6109d1565b005b61018c60048036038101906101879190613a5a565b610b98565b6040516101999190613e79565b60405180910390f35b6101bc60048036038101906101b79190613e94565b610bc6565b6040516101c99190613e79565b60405180910390f35b6101ec60048036038101906101e79190613a5a565b610c0d565b6040516101f99190614017565b60405180910390f35b61021c60048036038101906102179190613e94565b6110c7565b6040516102299190613e79565b60405180910390f35b61024c60048036038101906102479190614039565b61110e565b6040516102649c9b9a999897969594939291906140ce565b60405180910390f35b61028760048036038101906102829190613e94565b6114cb565b6040516102949190613e79565b60405180910390f35b6102a5611512565b6040516102b291906141b2565b60405180910390f35b6102d560048036038101906102d091906141f9565b611536565b005b6102f160048036038101906102ec9190614039565b6117e4565b6040516102fe9190614017565b60405180910390f35b610321600480360381019061031c9190613a5a565b611c37565b60405161032e9190613ddc565b60405180910390f35b610351600480360381019061034c9190613e94565b6121a9565b60405161035e9190613e79565b60405180910390f35b610381600480360381019061037c91906141f9565b6121f0565b005b61039d60048036038101906103989190614268565b61249d565b005b6103b960048036038101906103b49190613a5a565b6127b8565b6040516103c69190613ddc565b60405180910390f35b6103e960048036038101906103e49190613e94565b612d2a565b6040516103f69190613e79565b60405180910390f35b61041960048036038101906104149190613a5a565b612d71565b6040516104269190613ddc565b60405180910390f35b61044960048036038101906104449190613a5a565b6132e3565b6040516104569190613ddc565b60405180910390f35b6060600060068360405161047391906143a1565b90815260200160405180910390208054806020026020016040519081016040528092919081815260200182805480156104cb57602002820191906000526020600020905b8154815260200190600101908083116104b7575b505050505090506000815167ffffffffffffffff8111156104ef576104ee61392f565b5b60405190808252806020026020018201604052801561052857816020015b610515613877565b81526020019060019003908161050d5790505b50905060005b82518110156109c6576002600084838151811061054e5761054d6143b8565b5b60200260200101518152602001908152602001600020604051806101800160405290816000820154815260200160018201805461058a90614416565b80601f01602080910402602001604051908101604052809291908181526020018280546105b690614416565b80156106035780601f106105d857610100808354040283529160200191610603565b820191906000526020600020905b8154815290600101906020018083116105e657829003601f168201915b5050505050815260200160028201805461061c90614416565b80601f016020809104026020016040519081016040528092919081815260200182805461064890614416565b80156106955780601f1061066a57610100808354040283529160200191610695565b820191906000526020600020905b81548152906001019060200180831161067857829003601f168201915b505050505081526020016003820180546106ae90614416565b80601f01602080910402602001604051908101604052809291908181526020018280546106da90614416565b80156107275780601f106106fc57610100808354040283529160200191610727565b820191906000526020600020905b81548152906001019060200180831161070a57829003601f168201915b5050505050815260200160048201805461074090614416565b80601f016020809104026020016040519081016040528092919081815260200182805461076c90614416565b80156107b95780601f1061078e576101008083540402835291602001916107b9565b820191906000526020600020905b81548152906001019060200180831161079c57829003601f168201915b5050505050815260200160058201548152602001600682015481526020016007820160009054906101000a900473ffffffffffffffffffffffffffffffffffffffff1673ffffffffffffffffffffffffffffffffffffffff1673ffffffffffffffffffffffffffffffffffffffff1681526020016007820160149054906101000a900460ff16600281111561085157610850613ba8565b5b600281111561086357610862613ba8565b5b81526020016008820154815260200160098201805461088190614416565b80601f01602080910402602001604051908101604052809291908181526020018280546108ad90614416565b80156108fa5780601f106108cf576101008083540402835291602001916108fa565b820191906000526020600020905b8154815290600101906020018083116108dd57829003601f168201915b50505050508152602001600a8201805461091390614416565b80601f016020809104026020016040519081016040528092919081815260200182805461093f90614416565b801561098c5780601f106109615761010080835404028352916020019161098c565b820191906000526020600020905b81548152906001019060200180831161096f57829003601f168201915b5050505050815250508282815181106109a8576109a76143b8565b5b602002602001018190525080806109be90614476565b91505061052e565b508092505050919050565b813373ffffffffffffffffffffffffffffffffffffffff166002600083815260200190815260200160002060070160009054906101000a900473ffffffffffffffffffffffffffffffffffffffff1673ffffffffffffffffffffffffffffffffffffffff1614610a76576040517f08c379a0000000000000000000000000000000000000000000000000000000008152600401610a6d9061450a565b60405180910390fd5b60016002811115610a8a57610a89613ba8565b5b6002600085815260200190815260200160002060070160149054906101000a900460ff166002811115610ac057610abf613ba8565b5b14610b00576040517f08c379a0000000000000000000000000000000000000000000000000000000008152600401610af79061459c565b60405180910390fd5b60016002600085815260200190815260200160002060070160146101000a81548160ff02191690836002811115610b3a57610b39613ba8565b5b02179055508160026000858152602001908152602001600020600801819055507f19f2b8406fea471c8b47aeb735aeaca8df2bb22c1b4611f8d09963b92018bb4b8383604051610b8b9291906145bc565b60405180910390a1505050565b6003818051602081018201805184825260208301602085012081835280955050505050506000915090505481565b6005828051602081018201805184825260208301602085012081835280955050505050508181548110610bf857600080fd5b90600052602060002001600091509150505481565b610c15613877565b6000600383604051610c2791906143a1565b908152602001604051809103902054905060008103610c7b576040517f08c379a0000000000000000000000000000000000000000000000000000000008152600401610c7290614657565b60405180910390fd5b600260008281526020019081526020016000206040518061018001604052908160008201548152602001600182018054610cb490614416565b80601f0160208091040260200160405190810160405280929190818152602001828054610ce090614416565b8015610d2d5780601f10610d0257610100808354040283529160200191610d2d565b820191906000526020600020905b815481529060010190602001808311610d1057829003601f168201915b50505050508152602001600282018054610d4690614416565b80601f0160208091040260200160405190810160405280929190818152602001828054610d7290614416565b8015610dbf5780601f10610d9457610100808354040283529160200191610dbf565b820191906000526020600020905b815481529060010190602001808311610da257829003601f168201915b50505050508152602001600382018054610dd890614416565b80601f0160208091040260200160405190810160405280929190818152602001828054610e0490614416565b8015610e515780601f10610e2657610100808354040283529160200191610e51565b820191906000526020600020905b815481529060010190602001808311610e3457829003601f168201915b50505050508152602001600482018054610e6a90614416565b80601f0160208091040260200160405190810160405280929190818152602001828054610e9690614416565b8015610ee35780601f10610eb857610100808354040283529160200191610ee3565b820191906000526020600020905b815481529060010190602001808311610ec657829003601f168201915b5050505050815260200160058201548152602001600682015481526020016007820160009054906101000a900473ffffffffffffffffffffffffffffffffffffffff1673ffffffffffffffffffffffffffffffffffffffff1673ffffffffffffffffffffffffffffffffffffffff1681526020016007820160149054906101000a900460ff166002811115610f7b57610f7a613ba8565b5b6002811115610f8d57610f8c613ba8565b5b815260200160088201548152602001600982018054610fab90614416565b80601f0160208091040260200160405190810160405280929190818152602001828054610fd790614416565b80156110245780601f10610ff957610100808354040283529160200191611024565b820191906000526020600020905b81548152906001019060200180831161100757829003601f168201915b50505050508152602001600a8201805461103d90614416565b80601f016020809104026020016040519081016040528092919081815260200182805461106990614416565b80156110b65780601f1061108b576101008083540402835291602001916110b6565b820191906000526020600020905b81548152906001019060200180831161109957829003601f168201915b505050505081525050915050919050565b60068280516020810182018051848252602083016020850120818352809550505050505081815481106110f957600080fd5b90600052602060002001600091509150505481565b600260205280600052604060002060009150905080600001549080600101805461113790614416565b80601f016020809104026020016040519081016040528092919081815260200182805461116390614416565b80156111b05780601f10611185576101008083540402835291602001916111b0565b820191906000526020600020905b81548152906001019060200180831161119357829003601f168201915b5050505050908060020180546111c590614416565b80601f01602080910402602001604051908101604052809291908181526020018280546111f190614416565b801561123e5780601f106112135761010080835404028352916020019161123e565b820191906000526020600020905b81548152906001019060200180831161122157829003601f168201915b50505050509080600301805461125390614416565b80601f016020809104026020016040519081016040528092919081815260200182805461127f90614416565b80156112cc5780601f106112a1576101008083540402835291602001916112cc565b820191906000526020600020905b8154815290600101906020018083116112af57829003601f168201915b5050505050908060040180546112e190614416565b80601f016020809104026020016040519081016040528092919081815260200182805461130d90614416565b801561135a5780601f1061132f5761010080835404028352916020019161135a565b820191906000526020600020905b81548152906001019060200180831161133d57829003601f168201915b5050505050908060050154908060060154908060070160009054906101000a900473ffffffffffffffffffffffffffffffffffffffff16908060070160149054906101000a900460ff16908060080154908060090180546113ba90614416565b80601f01602080910402602001604051908101604052809291908181526020018280546113e690614416565b80156114335780601f1061140857610100808354040283529160200191611433565b820191906000526020600020905b81548152906001019060200180831161141657829003601f168201915b50505050509080600a01805461144890614416565b80601f016020809104026020016040519081016040528092919081815260200182805461147490614416565b80156114c15780601f10611496576101008083540402835291602001916114c1565b820191906000526020600020905b8154815290600101906020018083116114a457829003601f168201915b505050505090508c565b60078280516020810182018051848252602083016020850120818352809550505050505081815481106114fd57600080fd5b90600052602060002001600091509150505481565b60008054906101000a900473ffffffffffffffffffffffffffffffffffffffff1681565b823373ffffffffffffffffffffffffffffffffffffffff166002600083815260200190815260200160002060070160009054906101000a900473ffffffffffffffffffffffffffffffffffffffff1673ffffffffffffffffffffffffffffffffffffffff16146115db576040517f08c379a00000000000000000000000000000000000000000000000000000000081526004016115d29061450a565b60405180910390fd5b600060028111156115ef576115ee613ba8565b5b6002600086815260200190815260200160002060070160149054906101000a900460ff16600281111561162557611624613ba8565b5b14611665576040517f08c379a000000000000000000000000000000000000000000000000000000000815260040161165c906146e9565b60405180910390fd5b60006002600086815260200190815260200160002060070160009054906101000a900473ffffffffffffffffffffffffffffffffffffffff169050836002600087815260200190815260200160002060070160006101000a81548173ffffffffffffffffffffffffffffffffffffffff021916908373ffffffffffffffffffffffffffffffffffffffff16021790555060016002600087815260200190815260200160002060070160146101000a81548160ff0219169083600281111561172f5761172e613ba8565b5b02179055508260026000878152602001908152602001600020600901908161175791906148b5565b5060078360405161176891906143a1565b90815260200160405180910390208590806001815401808255809150506001900390600052602060002001600090919091909150557f78cbce294cd2b9684326e81ec7570ecda73b7af29f2f11cd90cba3889d02fe248582866001876040516117d59594939291906149ad565b60405180910390a15050505050565b6117ec613877565b60026000838152602001908152602001600020604051806101800160405290816000820154815260200160018201805461182590614416565b80601f016020809104026020016040519081016040528092919081815260200182805461185190614416565b801561189e5780601f106118735761010080835404028352916020019161189e565b820191906000526020600020905b81548152906001019060200180831161188157829003601f168201915b505050505081526020016002820180546118b790614416565b80601f01602080910402602001604051908101604052809291908181526020018280546118e390614416565b80156119305780601f1061190557610100808354040283529160200191611930565b820191906000526020600020905b81548152906001019060200180831161191357829003601f168201915b5050505050815260200160038201805461194990614416565b80601f016020809104026020016040519081016040528092919081815260200182805461197590614416565b80156119c25780601f10611997576101008083540402835291602001916119c2565b820191906000526020600020905b8154815290600101906020018083116119a557829003601f168201915b505050505081526020016004820180546119db90614416565b80601f0160208091040260200160405190810160405280929190818152602001828054611a0790614416565b8015611a545780601f10611a2957610100808354040283529160200191611a54565b820191906000526020600020905b815481529060010190602001808311611a3757829003601f168201915b5050505050815260200160058201548152602001600682015481526020016007820160009054906101000a900473ffffffffffffffffffffffffffffffffffffffff1673ffffffffffffffffffffffffffffffffffffffff1673ffffffffffffffffffffffffffffffffffffffff1681526020016007820160149054906101000a900460ff166002811115611aec57611aeb613ba8565b5b6002811115611afe57611afd613ba8565b5b815260200160088201548152602001600982018054611b1c90614416565b80601f0160208091040260200160405190810160405280929190818152602001828054611b4890614416565b8015611b955780601f10611b6a57610100808354040283529160200191611b95565b820191906000526020600020905b815481529060010190602001808311611b7857829003601f168201915b50505050508152602001600a82018054611bae90614416565b80601f0160208091040260200160405190810160405280929190818152602001828054611bda90614416565b8015611c275780601f10611bfc57610100808354040283529160200191611c27565b820191906000526020600020905b815481529060010190602001808311611c0a57829003601f168201915b5050505050815250509050919050565b60606000600883604051611c4b91906143a1565b9081526020016040518091039020805480602002602001604051908101604052809291908181526020018280548015611ca357602002820191906000526020600020905b815481526020019060010190808311611c8f575b505050505090506000815167ffffffffffffffff811115611cc757611cc661392f565b5b604051908082528060200260200182016040528015611d0057816020015b611ced613877565b815260200190600190039081611ce55790505b50905060005b825181101561219e5760026000848381518110611d2657611d256143b8565b5b602002602001015181526020019081526020016000206040518061018001604052908160008201548152602001600182018054611d6290614416565b80601f0160208091040260200160405190810160405280929190818152602001828054611d8e90614416565b8015611ddb5780601f10611db057610100808354040283529160200191611ddb565b820191906000526020600020905b815481529060010190602001808311611dbe57829003601f168201915b50505050508152602001600282018054611df490614416565b80601f0160208091040260200160405190810160405280929190818152602001828054611e2090614416565b8015611e6d5780601f10611e4257610100808354040283529160200191611e6d565b820191906000526020600020905b815481529060010190602001808311611e5057829003601f168201915b50505050508152602001600382018054611e8690614416565b80601f0160208091040260200160405190810160405280929190818152602001828054611eb290614416565b8015611eff5780601f10611ed457610100808354040283529160200191611eff565b820191906000526020600020905b815481529060010190602001808311611ee257829003601f168201915b50505050508152602001600482018054611f1890614416565b80601f0160208091040260200160405190810160405280929190818152602001828054611f4490614416565b8015611f915780601f10611f6657610100808354040283529160200191611f91565b820191906000526020600020905b815481529060010190602001808311611f7457829003601f168201915b5050505050815260200160058201548152602001600682015481526020016007820160009054906101000a900473ffffffffffffffffffffffffffffffffffffffff1673ffffffffffffffffffffffffffffffffffffffff1673ffffffffffffffffffffffffffffffffffffffff1681526020016007820160149054906101000a900460ff16600281111561202957612028613ba8565b5b600281111561203b5761203a613ba8565b5b81526020016008820154815260200160098201805461205990614416565b80601f016020809104026020016040519081016040528092919081815260200182805461208590614416565b80156120d25780601f106120a7576101008083540402835291602001916120d2565b820191906000526020600020905b8154815290600101906020018083116120b557829003601f168201915b50505050508152602001600a820180546120eb90614416565b80601f016020809104026020016040519081016040528092919081815260200182805461211790614416565b80156121645780601f1061213957610100808354040283529160200191612164565b820191906000526020600020905b81548152906001019060200180831161214757829003601f168201915b5050505050815250508282815181106121805761217f6143b8565b5b6020026020010181905250808061219690614476565b915050611d06565b508092505050919050565b60048280516020810182018051848252602083016020850120818352809550505050505081815481106121db57600080fd5b90600052602060002001600091509150505481565b823373ffffffffffffffffffffffffffffffffffffffff166002600083815260200190815260200160002060070160009054906101000a900473ffffffffffffffffffffffffffffffffffffffff1673ffffffffffffffffffffffffffffffffffffffff1614612295576040517f08c379a000000000000000000000000000000000000000000000000000000000815260040161228c9061450a565b60405180910390fd5b600160028111156122a9576122a8613ba8565b5b6002600086815260200190815260200160002060070160149054906101000a900460ff1660028111156122df576122de613ba8565b5b1461231f576040517f08c379a0000000000000000000000000000000000000000000000000000000008152600401612316906146e9565b60405180910390fd5b60006002600086815260200190815260200160002060070160009054906101000a900473ffffffffffffffffffffffffffffffffffffffff169050836002600087815260200190815260200160002060070160006101000a81548173ffffffffffffffffffffffffffffffffffffffff021916908373ffffffffffffffffffffffffffffffffffffffff160217905550600280600087815260200190815260200160002060070160146101000a81548160ff021916908360028111156123e8576123e7613ba8565b5b02179055508260026000878152602001908152602001600020600a01908161241091906148b5565b5060088360405161242191906143a1565b90815260200160405180910390208590806001815401808255809150506001900390600052602060002001600090919091909150557f78cbce294cd2b9684326e81ec7570ecda73b7af29f2f11cd90cba3889d02fe2485828660028760405161248e959493929190614a1a565b60405180910390a15050505050565b60006124a7613855565b905060006040518061018001604052808381526020018981526020018881526020018781526020018681526020018581526020018481526020013373ffffffffffffffffffffffffffffffffffffffff1681526020016000600281111561251157612510613ba8565b5b815260200160008152602001604051806020016040528060008152508152602001604051806020016040528060008152508152509050806002600084815260200190815260200160002060008201518160000155602082015181600101908161257a91906148b5565b50604082015181600201908161259091906148b5565b5060608201518160030190816125a691906148b5565b5060808201518160040190816125bc91906148b5565b5060a0820151816005015560c0820151816006015560e08201518160070160006101000a81548173ffffffffffffffffffffffffffffffffffffffff021916908373ffffffffffffffffffffffffffffffffffffffff1602179055506101008201518160070160146101000a81548160ff0219169083600281111561264457612643613ba8565b5b0217905550610120820151816008015561014082015181600901908161266a91906148b5565b5061016082015181600a01908161268191906148b5565b509050508160038960405161269691906143a1565b9081526020016040518091039020819055506004876040516126b891906143a1565b90815260200160405180910390208290806001815401808255809150506001900390600052602060002001600090919091909150556005866040516126fd91906143a1565b908152602001604051809103902082908060018154018082558091505060019003906000526020600020016000909190919091505560068560405161274291906143a1565b90815260200160405180910390208290806001815401808255809150506001900390600052602060002001600090919091909150557f8bfed7c0004768df129b4900300816f8e85b8633621048ae882252021aa699b2826040516127a69190613e79565b60405180910390a15050505050505050565b606060006005836040516127cc91906143a1565b908152602001604051809103902080548060200260200160405190810160405280929190818152602001828054801561282457602002820191906000526020600020905b815481526020019060010190808311612810575b505050505090506000815167ffffffffffffffff8111156128485761284761392f565b5b60405190808252806020026020018201604052801561288157816020015b61286e613877565b8152602001906001900390816128665790505b50905060005b8251811015612d1f57600260008483815181106128a7576128a66143b8565b5b6020026020010151815260200190815260200160002060405180610180016040529081600082015481526020016001820180546128e390614416565b80601f016020809104026020016040519081016040528092919081815260200182805461290f90614416565b801561295c5780601f106129315761010080835404028352916020019161295c565b820191906000526020600020905b81548152906001019060200180831161293f57829003601f168201915b5050505050815260200160028201805461297590614416565b80601f01602080910402602001604051908101604052809291908181526020018280546129a190614416565b80156129ee5780601f106129c3576101008083540402835291602001916129ee565b820191906000526020600020905b8154815290600101906020018083116129d157829003601f168201915b50505050508152602001600382018054612a0790614416565b80601f0160208091040260200160405190810160405280929190818152602001828054612a3390614416565b8015612a805780601f10612a5557610100808354040283529160200191612a80565b820191906000526020600020905b815481529060010190602001808311612a6357829003601f168201915b50505050508152602001600482018054612a9990614416565b80601f0160208091040260200160405190810160405280929190818152602001828054612ac590614416565b8015612b125780601f10612ae757610100808354040283529160200191612b12565b820191906000526020600020905b815481529060010190602001808311612af557829003601f168201915b5050505050815260200160058201548152602001600682015481526020016007820160009054906101000a900473ffffffffffffffffffffffffffffffffffffffff1673ffffffffffffffffffffffffffffffffffffffff1673ffffffffffffffffffffffffffffffffffffffff1681526020016007820160149054906101000a900460ff166002811115612baa57612ba9613ba8565b5b6002811115612bbc57612bbb613ba8565b5b815260200160088201548152602001600982018054612bda90614416565b80601f0160208091040260200160405190810160405280929190818152602001828054612c0690614416565b8015612c535780601f10612c2857610100808354040283529160200191612c53565b820191906000526020600020905b815481529060010190602001808311612c3657829003601f168201915b50505050508152602001600a82018054612c6c90614416565b80601f0160208091040260200160405190810160405280929190818152602001828054612c9890614416565b8015612ce55780601f10612cba57610100808354040283529160200191612ce5565b820191906000526020600020905b815481529060010190602001808311612cc857829003601f168201915b505050505081525050828281518110612d0157612d006143b8565b5b60200260200101819052508080612d1790614476565b915050612887565b508092505050919050565b6008828051602081018201805184825260208301602085012081835280955050505050508181548110612d5c57600080fd5b90600052602060002001600091509150505481565b60606000600783604051612d8591906143a1565b9081526020016040518091039020805480602002602001604051908101604052809291908181526020018280548015612ddd57602002820191906000526020600020905b815481526020019060010190808311612dc9575b505050505090506000815167ffffffffffffffff811115612e0157612e0061392f565b5b604051908082528060200260200182016040528015612e3a57816020015b612e27613877565b815260200190600190039081612e1f5790505b50905060005b82518110156132d85760026000848381518110612e6057612e5f6143b8565b5b602002602001015181526020019081526020016000206040518061018001604052908160008201548152602001600182018054612e9c90614416565b80601f0160208091040260200160405190810160405280929190818152602001828054612ec890614416565b8015612f155780601f10612eea57610100808354040283529160200191612f15565b820191906000526020600020905b815481529060010190602001808311612ef857829003601f168201915b50505050508152602001600282018054612f2e90614416565b80601f0160208091040260200160405190810160405280929190818152602001828054612f5a90614416565b8015612fa75780601f10612f7c57610100808354040283529160200191612fa7565b820191906000526020600020905b815481529060010190602001808311612f8a57829003601f168201915b50505050508152602001600382018054612fc090614416565b80601f0160208091040260200160405190810160405280929190818152602001828054612fec90614416565b80156130395780601f1061300e57610100808354040283529160200191613039565b820191906000526020600020905b81548152906001019060200180831161301c57829003601f168201915b5050505050815260200160048201805461305290614416565b80601f016020809104026020016040519081016040528092919081815260200182805461307e90614416565b80156130cb5780601f106130a0576101008083540402835291602001916130cb565b820191906000526020600020905b8154815290600101906020018083116130ae57829003601f168201915b5050505050815260200160058201548152602001600682015481526020016007820160009054906101000a900473ffffffffffffffffffffffffffffffffffffffff1673ffffffffffffffffffffffffffffffffffffffff1673ffffffffffffffffffffffffffffffffffffffff1681526020016007820160149054906101000a900460ff16600281111561316357613162613ba8565b5b600281111561317557613174613ba8565b5b81526020016008820154815260200160098201805461319390614416565b80601f01602080910402602001604051908101604052809291908181526020018280546131bf90614416565b801561320c5780601f106131e15761010080835404028352916020019161320c565b820191906000526020600020905b8154815290600101906020018083116131ef57829003601f168201915b50505050508152602001600a8201805461322590614416565b80601f016020809104026020016040519081016040528092919081815260200182805461325190614416565b801561329e5780601f106132735761010080835404028352916020019161329e565b820191906000526020600020905b81548152906001019060200180831161328157829003601f168201915b5050505050815250508282815181106132ba576132b96143b8565b5b602002602001018190525080806132d090614476565b915050612e40565b508092505050919050565b606060006004836040516132f791906143a1565b908152602001604051809103902080548060200260200160405190810160405280929190818152602001828054801561334f57602002820191906000526020600020905b81548152602001906001019080831161333b575b505050505090506000815167ffffffffffffffff8111156133735761337261392f565b5b6040519080825280602002602001820160405280156133ac57816020015b613399613877565b8152602001906001900390816133915790505b50905060005b825181101561384a57600260008483815181106133d2576133d16143b8565b5b60200260200101518152602001908152602001600020604051806101800160405290816000820154815260200160018201805461340e90614416565b80601f016020809104026020016040519081016040528092919081815260200182805461343a90614416565b80156134875780601f1061345c57610100808354040283529160200191613487565b820191906000526020600020905b81548152906001019060200180831161346a57829003601f168201915b505050505081526020016002820180546134a090614416565b80601f01602080910402602001604051908101604052809291908181526020018280546134cc90614416565b80156135195780601f106134ee57610100808354040283529160200191613519565b820191906000526020600020905b8154815290600101906020018083116134fc57829003601f168201915b5050505050815260200160038201805461353290614416565b80601f016020809104026020016040519081016040528092919081815260200182805461355e90614416565b80156135ab5780601f10613580576101008083540402835291602001916135ab565b820191906000526020600020905b81548152906001019060200180831161358e57829003601f168201915b505050505081526020016004820180546135c490614416565b80601f01602080910402602001604051908101604052809291908181526020018280546135f090614416565b801561363d5780601f106136125761010080835404028352916020019161363d565b820191906000526020600020905b81548152906001019060200180831161362057829003601f168201915b5050505050815260200160058201548152602001600682015481526020016007820160009054906101000a900473ffffffffffffffffffffffffffffffffffffffff1673ffffffffffffffffffffffffffffffffffffffff1673ffffffffffffffffffffffffffffffffffffffff1681526020016007820160149054906101000a900460ff1660028111156136d5576136d4613ba8565b5b60028111156136e7576136e6613ba8565b5b81526020016008820154815260200160098201805461370590614416565b80601f016020809104026020016040519081016040528092919081815260200182805461373190614416565b801561377e5780601f106137535761010080835404028352916020019161377e565b820191906000526020600020905b81548152906001019060200180831161376157829003601f168201915b50505050508152602001600a8201805461379790614416565b80601f01602080910402602001604051908101604052809291908181526020018280546137c390614416565b80156138105780601f106137e557610100808354040283529160200191613810565b820191906000526020600020905b8154815290600101906020018083116137f357829003601f168201915b50505050508152505082828151811061382c5761382b6143b8565b5b6020026020010181905250808061384290614476565b9150506133b2565b508092505050919050565b60006001600081548092919061386a90614476565b9190505550600154905090565b60405180610180016040528060008152602001606081526020016060815260200160608152602001606081526020016000815260200160008152602001600073ffffffffffffffffffffffffffffffffffffffff168152602001600060028111156138e5576138e4613ba8565b5b81526020016000815260200160608152602001606081525090565b6000604051905090565b600080fd5b600080fd5b600080fd5b600080fd5b6000601f19601f8301169050919050565b7f4e487b7100000000000000000000000000000000000000000000000000000000600052604160045260246000fd5b6139678261391e565b810181811067ffffffffffffffff821117156139865761398561392f565b5b80604052505050565b6000613999613900565b90506139a5828261395e565b919050565b600067ffffffffffffffff8211156139c5576139c461392f565b5b6139ce8261391e565b9050602081019050919050565b82818337600083830152505050565b60006139fd6139f8846139aa565b61398f565b905082815260208101848484011115613a1957613a18613919565b5b613a248482856139db565b509392505050565b600082601f830112613a4157613a40613914565b5b8135613a518482602086016139ea565b91505092915050565b600060208284031215613a7057613a6f61390a565b5b600082013567ffffffffffffffff811115613a8e57613a8d61390f565b5b613a9a84828501613a2c565b91505092915050565b600081519050919050565b600082825260208201905092915050565b6000819050602082019050919050565b6000819050919050565b613ae281613acf565b82525050565b600081519050919050565b600082825260208201905092915050565b60005b83811015613b22578082015181840152602081019050613b07565b60008484015250505050565b6000613b3982613ae8565b613b438185613af3565b9350613b53818560208601613b04565b613b5c8161391e565b840191505092915050565b600073ffffffffffffffffffffffffffffffffffffffff82169050919050565b6000613b9282613b67565b9050919050565b613ba281613b87565b82525050565b7f4e487b7100000000000000000000000000000000000000000000000000000000600052602160045260246000fd5b60038110613be857613be7613ba8565b5b50565b6000819050613bf982613bd7565b919050565b6000613c0982613beb565b9050919050565b613c1981613bfe565b82525050565b600061018083016000830151613c386000860182613ad9565b5060208301518482036020860152613c508282613b2e565b91505060408301518482036040860152613c6a8282613b2e565b91505060608301518482036060860152613c848282613b2e565b91505060808301518482036080860152613c9e8282613b2e565b91505060a0830151613cb360a0860182613ad9565b5060c0830151613cc660c0860182613ad9565b5060e0830151613cd960e0860182613b99565b50610100830151613cee610100860182613c10565b50610120830151613d03610120860182613ad9565b50610140830151848203610140860152613d1d8282613b2e565b915050610160830151848203610160860152613d398282613b2e565b9150508091505092915050565b6000613d528383613c1f565b905092915050565b6000602082019050919050565b6000613d7282613aa3565b613d7c8185613aae565b935083602082028501613d8e85613abf565b8060005b85811015613dca5784840389528151613dab8582613d46565b9450613db683613d5a565b925060208a01995050600181019050613d92565b50829750879550505050505092915050565b60006020820190508181036000830152613df68184613d67565b905092915050565b613e0781613acf565b8114613e1257600080fd5b50565b600081359050613e2481613dfe565b92915050565b60008060408385031215613e4157613e4061390a565b5b6000613e4f85828601613e15565b9250506020613e6085828601613e15565b9150509250929050565b613e7381613acf565b82525050565b6000602082019050613e8e6000830184613e6a565b92915050565b60008060408385031215613eab57613eaa61390a565b5b600083013567ffffffffffffffff811115613ec957613ec861390f565b5b613ed585828601613a2c565b9250506020613ee685828601613e15565b9150509250929050565b600061018083016000830151613f096000860182613ad9565b5060208301518482036020860152613f218282613b2e565b91505060408301518482036040860152613f3b8282613b2e565b91505060608301518482036060860152613f558282613b2e565b91505060808301518482036080860152613f6f8282613b2e565b91505060a0830151613f8460a0860182613ad9565b5060c0830151613f9760c0860182613ad9565b5060e0830151613faa60e0860182613b99565b50610100830151613fbf610100860182613c10565b50610120830151613fd4610120860182613ad9565b50610140830151848203610140860152613fee8282613b2e565b91505061016083015184820361016086015261400a8282613b2e565b9150508091505092915050565b600060208201905081810360008301526140318184613ef0565b905092915050565b60006020828403121561404f5761404e61390a565b5b600061405d84828501613e15565b91505092915050565b600082825260208201905092915050565b600061408282613ae8565b61408c8185614066565b935061409c818560208601613b04565b6140a58161391e565b840191505092915050565b6140b981613b87565b82525050565b6140c881613bfe565b82525050565b6000610180820190506140e4600083018f613e6a565b81810360208301526140f6818e614077565b9050818103604083015261410a818d614077565b9050818103606083015261411e818c614077565b90508181036080830152614132818b614077565b905061414160a083018a613e6a565b61414e60c0830189613e6a565b61415b60e08301886140b0565b6141696101008301876140bf565b614177610120830186613e6a565b81810361014083015261418a8185614077565b905081810361016083015261419f8184614077565b90509d9c50505050505050505050505050565b60006020820190506141c760008301846140b0565b92915050565b6141d681613b87565b81146141e157600080fd5b50565b6000813590506141f3816141cd565b92915050565b6000806000606084860312156142125761421161390a565b5b600061422086828701613e15565b9350506020614231868287016141e4565b925050604084013567ffffffffffffffff8111156142525761425161390f565b5b61425e86828701613a2c565b9150509250925092565b60008060008060008060c087890312156142855761428461390a565b5b600087013567ffffffffffffffff8111156142a3576142a261390f565b5b6142af89828a01613a2c565b965050602087013567ffffffffffffffff8111156142d0576142cf61390f565b5b6142dc89828a01613a2c565b955050604087013567ffffffffffffffff8111156142fd576142fc61390f565b5b61430989828a01613a2c565b945050606087013567ffffffffffffffff81111561432a5761432961390f565b5b61433689828a01613a2c565b935050608061434789828a01613e15565b92505060a061435889828a01613e15565b9150509295509295509295565b600081905092915050565b600061437b82613ae8565b6143858185614365565b9350614395818560208601613b04565b80840191505092915050565b60006143ad8284614370565b915081905092915050565b7f4e487b7100000000000000000000000000000000000000000000000000000000600052603260045260246000fd5b7f4e487b7100000000000000000000000000000000000000000000000000000000600052602260045260246000fd5b6000600282049050600182168061442e57607f821691505b602082108103614441576144406143e7565b5b50919050565b7f4e487b7100000000000000000000000000000000000000000000000000000000600052601160045260246000fd5b600061448182613acf565b91507fffffffffffffffffffffffffffffffffffffffffffffffffffffffffffffffff82036144b3576144b2614447565b5b600182019050919050565b7f596f7520617265206e6f7420746865206f776e65720000000000000000000000600082015250565b60006144f4601583614066565b91506144ff826144be565b602082019050919050565b60006020820190508181036000830152614523816144e7565b9050919050565b7f50726f64756374206973206e6f7420696e206120736869707061626c6520737460008201527f6174650000000000000000000000000000000000000000000000000000000000602082015250565b6000614586602383614066565b91506145918261452a565b604082019050919050565b600060208201905081810360008301526145b581614579565b9050919050565b60006040820190506145d16000830185613e6a565b6145de6020830184613e6a565b9392505050565b7f4e6f2070726f6475637420666f756e6420666f722074686520676976656e207060008201527f726f647563742049640000000000000000000000000000000000000000000000602082015250565b6000614641602983614066565b915061464c826145e5565b604082019050919050565b6000602082019050818103600083015261467081614634565b9050919050565b7f50726f64756374206973206e6f7420696e2061207472616e7366657261626c6560008201527f2073746174650000000000000000000000000000000000000000000000000000602082015250565b60006146d3602683614066565b91506146de82614677565b604082019050919050565b60006020820190508181036000830152614702816146c6565b9050919050565b60008190508160005260206000209050919050565b60006020601f8301049050919050565b600082821b905092915050565b60006008830261476b7fffffffffffffffffffffffffffffffffffffffffffffffffffffffffffffffff8261472e565b614775868361472e565b95508019841693508086168417925050509392505050565b6000819050919050565b60006147b26147ad6147a884613acf565b61478d565b613acf565b9050919050565b6000819050919050565b6147cc83614797565b6147e06147d8826147b9565b84845461473b565b825550505050565b600090565b6147f56147e8565b6148008184846147c3565b505050565b5b81811015614824576148196000826147ed565b600181019050614806565b5050565b601f8211156148695761483a81614709565b6148438461471e565b81016020851015614852578190505b61486661485e8561471e565b830182614805565b50505b505050565b600082821c905092915050565b600061488c6000198460080261486e565b1980831691505092915050565b60006148a5838361487b565b9150826002028217905092915050565b6148be82613ae8565b67ffffffffffffffff8111156148d7576148d661392f565b5b6148e18254614416565b6148ec828285614828565b600060209050601f83116001811461491f576000841561490d578287015190505b6149178582614899565b86555061497f565b601f19841661492d86614709565b60005b8281101561495557848901518255600182019150602085019450602081019050614930565b86831015614972578489015161496e601f89168261487b565b8355505b6001600288020188555050505b505050505050565b50565b6000614997600083614066565b91506149a282614987565b600082019050919050565b600060c0820190506149c26000830188613e6a565b6149cf60208301876140b0565b6149dc60408301866140b0565b6149e960608301856140bf565b81810360808301526149fb8184614077565b905081810360a0830152614a0e8161498a565b90509695505050505050565b600060c082019050614a2f6000830188613e6a565b614a3c60208301876140b0565b614a4960408301866140b0565b614a5660608301856140bf565b8181036080830152614a678161498a565b905081810360a0830152614a7b8184614077565b9050969550505050505056fea2646970667358221220238e6960b7852b4ffcd464d597c088beb0ec0cbf73b56ad57f14133e5221d0ea64736f6c63430008130033",
  "linkReferences": {},
  "deployedLinkReferences": {}
}