{
  "_format": "hh-sol-artifact-1",
  "contractName": "Pharmaceutical",
  "sourceName": "contracts/Pharmaceutical.sol",
  "abi": [
    {
      "inputs": [],
      "stateMutability": "nonpayable",
      "type": "constructor"
    },
    {
      "anonymous": false,
      "inputs": [
        {
          "indexed": false,
          "internalType": "uint256",
          "name": "productNumber",
          "type": "uint256"
        },
        {
          "indexed": false,
          "internalType": "address",
          "name": "from",
          "type": "address"
        },
        {
          "indexed": false,
          "internalType": "address",
          "name": "to",
          "type": "address"
        },
        {
          "indexed": false,
          "internalType": "enum Pharmaceutical.State",
          "name": "stateChanged",
          "type": "uint8"
        },
        {
          "indexed": false,
          "internalType": "string",
          "name": "distributorName",
          "type": "string"
        },
        {
          "indexed": false,
          "internalType": "string",
          "name": "retailerName",
          "type": "string"
        }
      ],
      "name": "OwnershipTransferred",
      "type": "event"
    },
    {
      "anonymous": false,
      "inputs": [
        {
          "indexed": false,
          "internalType": "uint256",
          "name": "productNumber",
          "type": "uint256"
        }
      ],
      "name": "ProductCreated",
      "type": "event"
    },
    {
      "anonymous": false,
      "inputs": [
        {
          "indexed": false,
          "internalType": "uint256",
          "name": "productNumber",
          "type": "uint256"
        },
        {
          "indexed": false,
          "internalType": "uint256",
          "name": "receivedDate",
          "type": "uint256"
        }
      ],
      "name": "ReceiveAdded",
      "type": "event"
    },
    {
      "anonymous": false,
      "inputs": [
        {
          "indexed": false,
          "internalType": "uint256",
          "name": "productNumber",
          "type": "uint256"
        },
        {
          "indexed": false,
          "internalType": "uint256",
          "name": "shipmentDate",
          "type": "uint256"
        }
      ],
      "name": "ShipmentAdded",
      "type": "event"
    },
    {
      "inputs": [
        {
          "internalType": "uint256",
          "name": "_productNumber",
          "type": "uint256"
        },
        {
          "internalType": "uint256",
          "name": "_receivedDate",
          "type": "uint256"
        }
      ],
      "name": "addReceivedDate",
      "outputs": [],
      "stateMutability": "nonpayable",
      "type": "function"
    },
    {
      "inputs": [
        {
          "internalType": "uint256",
          "name": "_productNumber",
          "type": "uint256"
        },
        {
          "internalType": "uint256",
          "name": "_shipmentDate",
          "type": "uint256"
        }
      ],
      "name": "addShipmentDate",
      "outputs": [],
      "stateMutability": "nonpayable",
      "type": "function"
    },
    {
      "inputs": [
        {
          "internalType": "string",
          "name": "",
          "type": "string"
        },
        {
          "internalType": "uint256",
          "name": "",
          "type": "uint256"
        }
      ],
      "name": "batchIdToProductNumbers",
      "outputs": [
        {
          "internalType": "uint256",
          "name": "",
          "type": "uint256"
        }
      ],
      "stateMutability": "view",
      "type": "function"
    },
    {
      "inputs": [
        {
          "internalType": "string",
          "name": "_productId",
          "type": "string"
        },
        {
          "internalType": "string",
          "name": "_batchId",
          "type": "string"
        },
        {
          "internalType": "string",
          "name": "_drugName",
          "type": "string"
        },
        {
          "internalType": "string",
          "name": "_manufacturerName",
          "type": "string"
        },
        {
          "internalType": "uint256",
          "name": "_manufactureDate",
          "type": "uint256"
        },
        {
          "internalType": "uint256",
          "name": "_expirationDate",
          "type": "uint256"
        }
      ],
      "name": "createProduct",
      "outputs": [],
      "stateMutability": "nonpayable",
      "type": "function"
    },
    {
      "inputs": [
        {
          "internalType": "string",
          "name": "",
          "type": "string"
        },
        {
          "internalType": "uint256",
          "name": "",
          "type": "uint256"
        }
      ],
      "name": "distributorNameToProductNumbers",
      "outputs": [
        {
          "internalType": "uint256",
          "name": "",
          "type": "uint256"
        }
      ],
      "stateMutability": "view",
      "type": "function"
    },
    {
      "inputs": [
        {
          "internalType": "string",
          "name": "",
          "type": "string"
        },
        {
          "internalType": "uint256",
          "name": "",
          "type": "uint256"
        }
      ],
      "name": "drugNameToProductNumbers",
      "outputs": [
        {
          "internalType": "uint256",
          "name": "",
          "type": "uint256"
        }
      ],
      "stateMutability": "view",
      "type": "function"
    },
    {
      "inputs": [
        {
          "internalType": "string",
          "name": "",
          "type": "string"
        },
        {
          "internalType": "uint256",
          "name": "",
          "type": "uint256"
        }
      ],
      "name": "manufacturerNameToProductNumbers",
      "outputs": [
        {
          "internalType": "uint256",
          "name": "",
          "type": "uint256"
        }
      ],
      "stateMutability": "view",
      "type": "function"
    },
    {
      "inputs": [],
      "name": "owner",
      "outputs": [
        {
          "internalType": "address",
          "name": "",
          "type": "address"
        }
      ],
      "stateMutability": "view",
      "type": "function"
    },
    {
      "inputs": [
        {
          "internalType": "string",
          "name": "",
          "type": "string"
        }
      ],
      "name": "productIdToProductNumber",
      "outputs": [
        {
          "internalType": "uint256",
          "name": "",
          "type": "uint256"
        }
      ],
      "stateMutability": "view",
      "type": "function"
    },
    {
      "inputs": [
        {
          "internalType": "uint256",
          "name": "",
          "type": "uint256"
        }
      ],
      "name": "products",
      "outputs": [
        {
          "internalType": "uint256",
          "name": "productNumber",
          "type": "uint256"
        },
        {
          "internalType": "string",
          "name": "productId",
          "type": "string"
        },
        {
          "internalType": "string",
          "name": "batchId",
          "type": "string"
        },
        {
          "internalType": "string",
          "name": "drugName",
          "type": "string"
        },
        {
          "internalType": "string",
          "name": "manufacturerName",
          "type": "string"
        },
        {
          "internalType": "uint256",
          "name": "manufactureDate",
          "type": "uint256"
        },
        {
          "internalType": "uint256",
          "name": "expirationDate",
          "type": "uint256"
        },
        {
          "internalType": "address",
          "name": "currentOwner",
          "type": "address"
        },
        {
          "internalType": "enum Pharmaceutical.State",
          "name": "currentState",
          "type": "uint8"
        },
        {
          "internalType": "uint256",
          "name": "shipmentDate",
          "type": "uint256"
        },
        {
          "internalType": "string",
          "name": "distributorName",
          "type": "string"
        },
        {
          "internalType": "uint256",
          "name": "receivedDate",
          "type": "uint256"
        },
        {
          "internalType": "string",
          "name": "retailerName",
          "type": "string"
        }
      ],
      "stateMutability": "view",
      "type": "function"
    },
    {
      "inputs": [],
      "name": "queryAllProducts",
      "outputs": [
        {
          "components": [
            {
              "internalType": "uint256",
              "name": "productNumber",
              "type": "uint256"
            },
            {
              "internalType": "string",
              "name": "productId",
              "type": "string"
            },
            {
              "internalType": "string",
              "name": "batchId",
              "type": "string"
            },
            {
              "internalType": "string",
              "name": "drugName",
              "type": "string"
            },
            {
              "internalType": "string",
              "name": "manufacturerName",
              "type": "string"
            },
            {
              "internalType": "uint256",
              "name": "manufactureDate",
              "type": "uint256"
            },
            {
              "internalType": "uint256",
              "name": "expirationDate",
              "type": "uint256"
            },
            {
              "internalType": "address",
              "name": "currentOwner",
              "type": "address"
            },
            {
              "internalType": "enum Pharmaceutical.State",
              "name": "currentState",
              "type": "uint8"
            },
            {
              "internalType": "uint256",
              "name": "shipmentDate",
              "type": "uint256"
            },
            {
              "internalType": "string",
              "name": "distributorName",
              "type": "string"
            },
            {
              "internalType": "uint256",
              "name": "receivedDate",
              "type": "uint256"
            },
            {
              "internalType": "string",
              "name": "retailerName",
              "type": "string"
            }
          ],
          "internalType": "struct Pharmaceutical.Product[]",
          "name": "",
          "type": "tuple[]"
        }
      ],
      "stateMutability": "view",
      "type": "function"
    },
    {
      "inputs": [
        {
          "internalType": "uint256",
          "name": "_productNumber",
          "type": "uint256"
        }
      ],
      "name": "queryProduct",
      "outputs": [
        {
          "components": [
            {
              "internalType": "uint256",
              "name": "productNumber",
              "type": "uint256"
            },
            {
              "internalType": "string",
              "name": "productId",
              "type": "string"
            },
            {
              "internalType": "string",
              "name": "batchId",
              "type": "string"
            },
            {
              "internalType": "string",
              "name": "drugName",
              "type": "string"
            },
            {
              "internalType": "string",
              "name": "manufacturerName",
              "type": "string"
            },
            {
              "internalType": "uint256",
              "name": "manufactureDate",
              "type": "uint256"
            },
            {
              "internalType": "uint256",
              "name": "expirationDate",
              "type": "uint256"
            },
            {
              "internalType": "address",
              "name": "currentOwner",
              "type": "address"
            },
            {
              "internalType": "enum Pharmaceutical.State",
              "name": "currentState",
              "type": "uint8"
            },
            {
              "internalType": "uint256",
              "name": "shipmentDate",
              "type": "uint256"
            },
            {
              "internalType": "string",
              "name": "distributorName",
              "type": "string"
            },
            {
              "internalType": "uint256",
              "name": "receivedDate",
              "type": "uint256"
            },
            {
              "internalType": "string",
              "name": "retailerName",
              "type": "string"
            }
          ],
          "internalType": "struct Pharmaceutical.Product",
          "name": "",
          "type": "tuple"
        }
      ],
      "stateMutability": "view",
      "type": "function"
    },
    {
      "inputs": [
        {
          "internalType": "string",
          "name": "_productId",
          "type": "string"
        }
      ],
      "name": "queryProductByProductId",
      "outputs": [
        {
          "components": [
            {
              "internalType": "uint256",
              "name": "productNumber",
              "type": "uint256"
            },
            {
              "internalType": "string",
              "name": "productId",
              "type": "string"
            },
            {
              "internalType": "string",
              "name": "batchId",
              "type": "string"
            },
            {
              "internalType": "string",
              "name": "drugName",
              "type": "string"
            },
            {
              "internalType": "string",
              "name": "manufacturerName",
              "type": "string"
            },
            {
              "internalType": "uint256",
              "name": "manufactureDate",
              "type": "uint256"
            },
            {
              "internalType": "uint256",
              "name": "expirationDate",
              "type": "uint256"
            },
            {
              "internalType": "address",
              "name": "currentOwner",
              "type": "address"
            },
            {
              "internalType": "enum Pharmaceutical.State",
              "name": "currentState",
              "type": "uint8"
            },
            {
              "internalType": "uint256",
              "name": "shipmentDate",
              "type": "uint256"
            },
            {
              "internalType": "string",
              "name": "distributorName",
              "type": "string"
            },
            {
              "internalType": "uint256",
              "name": "receivedDate",
              "type": "uint256"
            },
            {
              "internalType": "string",
              "name": "retailerName",
              "type": "string"
            }
          ],
          "internalType": "struct Pharmaceutical.Product",
          "name": "",
          "type": "tuple"
        }
      ],
      "stateMutability": "view",
      "type": "function"
    },
    {
      "inputs": [
        {
          "internalType": "string",
          "name": "_batchId",
          "type": "string"
        }
      ],
      "name": "queryProductsByBatchId",
      "outputs": [
        {
          "components": [
            {
              "internalType": "uint256",
              "name": "productNumber",
              "type": "uint256"
            },
            {
              "internalType": "string",
              "name": "productId",
              "type": "string"
            },
            {
              "internalType": "string",
              "name": "batchId",
              "type": "string"
            },
            {
              "internalType": "string",
              "name": "drugName",
              "type": "string"
            },
            {
              "internalType": "string",
              "name": "manufacturerName",
              "type": "string"
            },
            {
              "internalType": "uint256",
              "name": "manufactureDate",
              "type": "uint256"
            },
            {
              "internalType": "uint256",
              "name": "expirationDate",
              "type": "uint256"
            },
            {
              "internalType": "address",
              "name": "currentOwner",
              "type": "address"
            },
            {
              "internalType": "enum Pharmaceutical.State",
              "name": "currentState",
              "type": "uint8"
            },
            {
              "internalType": "uint256",
              "name": "shipmentDate",
              "type": "uint256"
            },
            {
              "internalType": "string",
              "name": "distributorName",
              "type": "string"
            },
            {
              "internalType": "uint256",
              "name": "receivedDate",
              "type": "uint256"
            },
            {
              "internalType": "string",
              "name": "retailerName",
              "type": "string"
            }
          ],
          "internalType": "struct Pharmaceutical.Product[]",
          "name": "",
          "type": "tuple[]"
        }
      ],
      "stateMutability": "view",
      "type": "function"
    },
    {
      "inputs": [
        {
          "internalType": "string",
          "name": "_distributorName",
          "type": "string"
        }
      ],
      "name": "queryProductsByDistributor",
      "outputs": [
        {
          "components": [
            {
              "internalType": "uint256",
              "name": "productNumber",
              "type": "uint256"
            },
            {
              "internalType": "string",
              "name": "productId",
              "type": "string"
            },
            {
              "internalType": "string",
              "name": "batchId",
              "type": "string"
            },
            {
              "internalType": "string",
              "name": "drugName",
              "type": "string"
            },
            {
              "internalType": "string",
              "name": "manufacturerName",
              "type": "string"
            },
            {
              "internalType": "uint256",
              "name": "manufactureDate",
              "type": "uint256"
            },
            {
              "internalType": "uint256",
              "name": "expirationDate",
              "type": "uint256"
            },
            {
              "internalType": "address",
              "name": "currentOwner",
              "type": "address"
            },
            {
              "internalType": "enum Pharmaceutical.State",
              "name": "currentState",
              "type": "uint8"
            },
            {
              "internalType": "uint256",
              "name": "shipmentDate",
              "type": "uint256"
            },
            {
              "internalType": "string",
              "name": "distributorName",
              "type": "string"
            },
            {
              "internalType": "uint256",
              "name": "receivedDate",
              "type": "uint256"
            },
            {
              "internalType": "string",
              "name": "retailerName",
              "type": "string"
            }
          ],
          "internalType": "struct Pharmaceutical.Product[]",
          "name": "",
          "type": "tuple[]"
        }
      ],
      "stateMutability": "view",
      "type": "function"
    },
    {
      "inputs": [
        {
          "internalType": "string",
          "name": "_drugName",
          "type": "string"
        }
      ],
      "name": "queryProductsByDrugName",
      "outputs": [
        {
          "components": [
            {
              "internalType": "uint256",
              "name": "productNumber",
              "type": "uint256"
            },
            {
              "internalType": "string",
              "name": "productId",
              "type": "string"
            },
            {
              "internalType": "string",
              "name": "batchId",
              "type": "string"
            },
            {
              "internalType": "string",
              "name": "drugName",
              "type": "string"
            },
            {
              "internalType": "string",
              "name": "manufacturerName",
              "type": "string"
            },
            {
              "internalType": "uint256",
              "name": "manufactureDate",
              "type": "uint256"
            },
            {
              "internalType": "uint256",
              "name": "expirationDate",
              "type": "uint256"
            },
            {
              "internalType": "address",
              "name": "currentOwner",
              "type": "address"
            },
            {
              "internalType": "enum Pharmaceutical.State",
              "name": "currentState",
              "type": "uint8"
            },
            {
              "internalType": "uint256",
              "name": "shipmentDate",
              "type": "uint256"
            },
            {
              "internalType": "string",
              "name": "distributorName",
              "type": "string"
            },
            {
              "internalType": "uint256",
              "name": "receivedDate",
              "type": "uint256"
            },
            {
              "internalType": "string",
              "name": "retailerName",
              "type": "string"
            }
          ],
          "internalType": "struct Pharmaceutical.Product[]",
          "name": "",
          "type": "tuple[]"
        }
      ],
      "stateMutability": "view",
      "type": "function"
    },
    {
      "inputs": [
        {
          "internalType": "string",
          "name": "_manufacturerName",
          "type": "string"
        }
      ],
      "name": "queryProductsByManufacturer",
      "outputs": [
        {
          "components": [
            {
              "internalType": "uint256",
              "name": "productNumber",
              "type": "uint256"
            },
            {
              "internalType": "string",
              "name": "productId",
              "type": "string"
            },
            {
              "internalType": "string",
              "name": "batchId",
              "type": "string"
            },
            {
              "internalType": "string",
              "name": "drugName",
              "type": "string"
            },
            {
              "internalType": "string",
              "name": "manufacturerName",
              "type": "string"
            },
            {
              "internalType": "uint256",
              "name": "manufactureDate",
              "type": "uint256"
            },
            {
              "internalType": "uint256",
              "name": "expirationDate",
              "type": "uint256"
            },
            {
              "internalType": "address",
              "name": "currentOwner",
              "type": "address"
            },
            {
              "internalType": "enum Pharmaceutical.State",
              "name": "currentState",
              "type": "uint8"
            },
            {
              "internalType": "uint256",
              "name": "shipmentDate",
              "type": "uint256"
            },
            {
              "internalType": "string",
              "name": "distributorName",
              "type": "string"
            },
            {
              "internalType": "uint256",
              "name": "receivedDate",
              "type": "uint256"
            },
            {
              "internalType": "string",
              "name": "retailerName",
              "type": "string"
            }
          ],
          "internalType": "struct Pharmaceutical.Product[]",
          "name": "",
          "type": "tuple[]"
        }
      ],
      "stateMutability": "view",
      "type": "function"
    },
    {
      "inputs": [
        {
          "internalType": "string",
          "name": "_retailerName",
          "type": "string"
        }
      ],
      "name": "queryProductsByRetailer",
      "outputs": [
        {
          "components": [
            {
              "internalType": "uint256",
              "name": "productNumber",
              "type": "uint256"
            },
            {
              "internalType": "string",
              "name": "productId",
              "type": "string"
            },
            {
              "internalType": "string",
              "name": "batchId",
              "type": "string"
            },
            {
              "internalType": "string",
              "name": "drugName",
              "type": "string"
            },
            {
              "internalType": "string",
              "name": "manufacturerName",
              "type": "string"
            },
            {
              "internalType": "uint256",
              "name": "manufactureDate",
              "type": "uint256"
            },
            {
              "internalType": "uint256",
              "name": "expirationDate",
              "type": "uint256"
            },
            {
              "internalType": "address",
              "name": "currentOwner",
              "type": "address"
            },
            {
              "internalType": "enum Pharmaceutical.State",
              "name": "currentState",
              "type": "uint8"
            },
            {
              "internalType": "uint256",
              "name": "shipmentDate",
              "type": "uint256"
            },
            {
              "internalType": "string",
              "name": "distributorName",
              "type": "string"
            },
            {
              "internalType": "uint256",
              "name": "receivedDate",
              "type": "uint256"
            },
            {
              "internalType": "string",
              "name": "retailerName",
              "type": "string"
            }
          ],
          "internalType": "struct Pharmaceutical.Product[]",
          "name": "",
          "type": "tuple[]"
        }
      ],
      "stateMutability": "view",
      "type": "function"
    },
    {
      "inputs": [
        {
          "internalType": "string",
          "name": "",
          "type": "string"
        },
        {
          "internalType": "uint256",
          "name": "",
          "type": "uint256"
        }
      ],
      "name": "retailerNameToProductNumbers",
      "outputs": [
        {
          "internalType": "uint256",
          "name": "",
          "type": "uint256"
        }
      ],
      "stateMutability": "view",
      "type": "function"
    },
    {
      "inputs": [
        {
          "internalType": "uint256",
          "name": "_productNumber",
          "type": "uint256"
        },
        {
          "internalType": "address",
          "name": "_newOwner",
          "type": "address"
        },
        {
          "internalType": "string",
          "name": "_distributorName",
          "type": "string"
        }
      ],
      "name": "transferOwnershipToDistributor",
      "outputs": [],
      "stateMutability": "nonpayable",
      "type": "function"
    },
    {
      "inputs": [
        {
          "internalType": "uint256",
          "name": "_productNumber",
          "type": "uint256"
        },
        {
          "internalType": "address",
          "name": "_newOwner",
          "type": "address"
        },
        {
          "internalType": "string",
          "name": "_retailerName",
          "type": "string"
        }
      ],
      "name": "transferOwnershipToRetailer",
      "outputs": [],
      "stateMutability": "nonpayable",
      "type": "function"
    }
  ],
  "bytecode": "0x608060405234801561001057600080fd5b50600080546001600160a01b03191633179055613f9a806100326000396000f3fe608060405234801561001057600080fd5b50600436106101375760003560e01c8063a9a63cb3116100b8578063c42904971161007c578063c4290497146102d5578063c4c612ff146102e8578063d572d142146102fb578063ea467b401461030e578063eaa4ed3314610316578063ffdaa5751461032957600080fd5b8063a9a63cb314610276578063aaa1ee2d14610289578063b93684601461029c578063ba727179146102af578063c39e0b2b146102c257600080fd5b806372091c16116100ff57806372091c16146101e65780637acc0b20146101f95780638698f797146102255780638da5cb5b14610238578063a52606021461026357600080fd5b8063193d308a1461013c578063226eab0c14610165578063557231a21461017a5780636268f0f5146101b3578063677b32d5146101c6575b600080fd5b61014f61014a366004613802565b61033c565b60405161015c91906139d1565b60405180910390f35b610178610173366004613a33565b610864565b005b6101a5610188366004613802565b805160208183018101805160038252928201919093012091525481565b60405190815260200161015c565b6101a56101c1366004613a55565b610998565b6101d96101d4366004613802565b6109d8565b60405161015c9190613a9a565b6101a56101f4366004613a55565b610e73565b61020c610207366004613ab4565b610e9e565b60405161015c9d9c9b9a99989796959493929190613acd565b6101a5610233366004613a55565b611242565b60005461024b906001600160a01b031681565b6040516001600160a01b03909116815260200161015c565b610178610271366004613b9e565b61126d565b6101d9610284366004613ab4565b6113e9565b61014f610297366004613802565b6117fe565b6101a56102aa366004613a55565b611d1e565b6101786102bd366004613b9e565b611d49565b6101786102d0366004613c03565b611ebb565b61014f6102e3366004613802565b61215f565b6101a56102f6366004613a55565b61267f565b61014f610309366004613802565b6126aa565b61014f612bca565b610178610324366004613a33565b61307a565b61014f610337366004613802565b61319f565b606060006006836040516103509190613cc2565b90815260408051918290036020908101832080548083028501830190935282845291908301828280156103a257602002820191906000526020600020905b81548152602001906001019080831161038e575b505050505090506000815167ffffffffffffffff8111156103c5576103c561375f565b6040519080825280602002602001820160405280156103fe57816020015b6103eb6136dd565b8152602001906001900390816103e35790505b50905060005b825181101561085c576002600084838151811061042357610423613cde565b60200260200101518152602001908152602001600020604051806101a00160405290816000820154815260200160018201805461045f90613cf4565b80601f016020809104026020016040519081016040528092919081815260200182805461048b90613cf4565b80156104d85780601f106104ad576101008083540402835291602001916104d8565b820191906000526020600020905b8154815290600101906020018083116104bb57829003601f168201915b505050505081526020016002820180546104f190613cf4565b80601f016020809104026020016040519081016040528092919081815260200182805461051d90613cf4565b801561056a5780601f1061053f5761010080835404028352916020019161056a565b820191906000526020600020905b81548152906001019060200180831161054d57829003601f168201915b5050505050815260200160038201805461058390613cf4565b80601f01602080910402602001604051908101604052809291908181526020018280546105af90613cf4565b80156105fc5780601f106105d1576101008083540402835291602001916105fc565b820191906000526020600020905b8154815290600101906020018083116105df57829003601f168201915b5050505050815260200160048201805461061590613cf4565b80601f016020809104026020016040519081016040528092919081815260200182805461064190613cf4565b801561068e5780601f106106635761010080835404028352916020019161068e565b820191906000526020600020905b81548152906001019060200180831161067157829003601f168201915b5050509183525050600582015460208201526006820154604082015260078201546001600160a01b0381166060830152608090910190600160a01b900460ff1660028111156106df576106df61388f565b60028111156106f0576106f061388f565b81526020016008820154815260200160098201805461070e90613cf4565b80601f016020809104026020016040519081016040528092919081815260200182805461073a90613cf4565b80156107875780601f1061075c57610100808354040283529160200191610787565b820191906000526020600020905b81548152906001019060200180831161076a57829003601f168201915b50505050508152602001600a8201548152602001600b820180546107aa90613cf4565b80601f01602080910402602001604051908101604052809291908181526020018280546107d690613cf4565b80156108235780601f106107f857610100808354040283529160200191610823565b820191906000526020600020905b81548152906001019060200180831161080657829003601f168201915b50505050508152505082828151811061083e5761083e613cde565b6020026020010181905250808061085490613d44565b915050610404565b509392505050565b60008281526002602052604090206007015482906001600160a01b031633146108a85760405162461bcd60e51b815260040161089f90613d5d565b60405180910390fd5b6000838152600260208190526040822060070154600160a01b900460ff16908111156108d6576108d661388f565b1461092f5760405162461bcd60e51b815260206004820152602360248201527f50726f64756374206973206e6f7420696e206120736869707061626c6520737460448201526261746560e81b606482015260840161089f565b60008381526002602090815260409182902060078101805460ff60a01b1916600160a01b17905560080184905581518581529081018490527f19f2b8406fea471c8b47aeb735aeaca8df2bb22c1b4611f8d09963b92018bb4b91015b60405180910390a1505050565b815160208184018101805160058252928201918501919091209190528054829081106109c357600080fd5b90600052602060002001600091509150505481565b6109e06136dd565b60006003836040516109f29190613cc2565b908152602001604051809103902054905080600003610a655760405162461bcd60e51b815260206004820152602960248201527f4e6f2070726f6475637420666f756e6420666f722074686520676976656e20706044820152681c9bd91d58dd08125960ba1b606482015260840161089f565b60026000828152602001908152602001600020604051806101a001604052908160008201548152602001600182018054610a9e90613cf4565b80601f0160208091040260200160405190810160405280929190818152602001828054610aca90613cf4565b8015610b175780601f10610aec57610100808354040283529160200191610b17565b820191906000526020600020905b815481529060010190602001808311610afa57829003601f168201915b50505050508152602001600282018054610b3090613cf4565b80601f0160208091040260200160405190810160405280929190818152602001828054610b5c90613cf4565b8015610ba95780601f10610b7e57610100808354040283529160200191610ba9565b820191906000526020600020905b815481529060010190602001808311610b8c57829003601f168201915b50505050508152602001600382018054610bc290613cf4565b80601f0160208091040260200160405190810160405280929190818152602001828054610bee90613cf4565b8015610c3b5780601f10610c1057610100808354040283529160200191610c3b565b820191906000526020600020905b815481529060010190602001808311610c1e57829003601f168201915b50505050508152602001600482018054610c5490613cf4565b80601f0160208091040260200160405190810160405280929190818152602001828054610c8090613cf4565b8015610ccd5780601f10610ca257610100808354040283529160200191610ccd565b820191906000526020600020905b815481529060010190602001808311610cb057829003601f168201915b5050509183525050600582015460208201526006820154604082015260078201546001600160a01b0381166060830152608090910190600160a01b900460ff166002811115610d1e57610d1e61388f565b6002811115610d2f57610d2f61388f565b815260200160088201548152602001600982018054610d4d90613cf4565b80601f0160208091040260200160405190810160405280929190818152602001828054610d7990613cf4565b8015610dc65780601f10610d9b57610100808354040283529160200191610dc6565b820191906000526020600020905b815481529060010190602001808311610da957829003601f168201915b50505050508152602001600a8201548152602001600b82018054610de990613cf4565b80601f0160208091040260200160405190810160405280929190818152602001828054610e1590613cf4565b8015610e625780601f10610e3757610100808354040283529160200191610e62565b820191906000526020600020905b815481529060010190602001808311610e4557829003601f168201915b505050505081525050915050919050565b815160208184018101805160068252928201918501919091209190528054829081106109c357600080fd5b60026020526000908152604090208054600182018054919291610ec090613cf4565b80601f0160208091040260200160405190810160405280929190818152602001828054610eec90613cf4565b8015610f395780601f10610f0e57610100808354040283529160200191610f39565b820191906000526020600020905b815481529060010190602001808311610f1c57829003601f168201915b505050505090806002018054610f4e90613cf4565b80601f0160208091040260200160405190810160405280929190818152602001828054610f7a90613cf4565b8015610fc75780601f10610f9c57610100808354040283529160200191610fc7565b820191906000526020600020905b815481529060010190602001808311610faa57829003601f168201915b505050505090806003018054610fdc90613cf4565b80601f016020809104026020016040519081016040528092919081815260200182805461100890613cf4565b80156110555780601f1061102a57610100808354040283529160200191611055565b820191906000526020600020905b81548152906001019060200180831161103857829003601f168201915b50505050509080600401805461106a90613cf4565b80601f016020809104026020016040519081016040528092919081815260200182805461109690613cf4565b80156110e35780601f106110b8576101008083540402835291602001916110e3565b820191906000526020600020905b8154815290600101906020018083116110c657829003601f168201915b505050506005830154600684015460078501546008860154600987018054969794969395506001600160a01b03831694600160a01b90930460ff169391929161112b90613cf4565b80601f016020809104026020016040519081016040528092919081815260200182805461115790613cf4565b80156111a45780601f10611179576101008083540402835291602001916111a4565b820191906000526020600020905b81548152906001019060200180831161118757829003601f168201915b50505050509080600a01549080600b0180546111bf90613cf4565b80601f01602080910402602001604051908101604052809291908181526020018280546111eb90613cf4565b80156112385780601f1061120d57610100808354040283529160200191611238565b820191906000526020600020905b81548152906001019060200180831161121b57829003601f168201915b505050505090508d565b815160208184018101805160078252928201918501919091209190528054829081106109c357600080fd5b60008381526002602052604090206007015483906001600160a01b031633146112a85760405162461bcd60e51b815260040161089f90613d5d565b6000848152600260208190526040822060070154600160a01b900460ff16908111156112d6576112d661388f565b146113325760405162461bcd60e51b815260206004820152602660248201527f50726f64756374206973206e6f7420696e2061207472616e7366657261626c6560448201526520737461746560d01b606482015260840161089f565b60008481526002602052604090206007810180546001600160a01b038681166001600160a01b0319831617909255169060090161136f8482613ddb565b506007836040516113809190613cc2565b9081526040519081900360209081018220805460018101825560009182529181209091018790557f78cbce294cd2b9684326e81ec7570ecda73b7af29f2f11cd90cba3889d02fe24916113da918891859189918990613e9b565b60405180910390a15050505050565b6113f16136dd565b60026000838152602001908152602001600020604051806101a00160405290816000820154815260200160018201805461142a90613cf4565b80601f016020809104026020016040519081016040528092919081815260200182805461145690613cf4565b80156114a35780601f10611478576101008083540402835291602001916114a3565b820191906000526020600020905b81548152906001019060200180831161148657829003601f168201915b505050505081526020016002820180546114bc90613cf4565b80601f01602080910402602001604051908101604052809291908181526020018280546114e890613cf4565b80156115355780601f1061150a57610100808354040283529160200191611535565b820191906000526020600020905b81548152906001019060200180831161151857829003601f168201915b5050505050815260200160038201805461154e90613cf4565b80601f016020809104026020016040519081016040528092919081815260200182805461157a90613cf4565b80156115c75780601f1061159c576101008083540402835291602001916115c7565b820191906000526020600020905b8154815290600101906020018083116115aa57829003601f168201915b505050505081526020016004820180546115e090613cf4565b80601f016020809104026020016040519081016040528092919081815260200182805461160c90613cf4565b80156116595780601f1061162e57610100808354040283529160200191611659565b820191906000526020600020905b81548152906001019060200180831161163c57829003601f168201915b5050509183525050600582015460208201526006820154604082015260078201546001600160a01b0381166060830152608090910190600160a01b900460ff1660028111156116aa576116aa61388f565b60028111156116bb576116bb61388f565b8152602001600882015481526020016009820180546116d990613cf4565b80601f016020809104026020016040519081016040528092919081815260200182805461170590613cf4565b80156117525780601f1061172757610100808354040283529160200191611752565b820191906000526020600020905b81548152906001019060200180831161173557829003601f168201915b50505050508152602001600a8201548152602001600b8201805461177590613cf4565b80601f01602080910402602001604051908101604052809291908181526020018280546117a190613cf4565b80156117ee5780601f106117c3576101008083540402835291602001916117ee565b820191906000526020600020905b8154815290600101906020018083116117d157829003601f168201915b5050505050815250509050919050565b606060006008836040516118129190613cc2565b908152604080519182900360209081018320805480830285018301909352828452919083018282801561186457602002820191906000526020600020905b815481526020019060010190808311611850575b505050505090506000815167ffffffffffffffff8111156118875761188761375f565b6040519080825280602002602001820160405280156118c057816020015b6118ad6136dd565b8152602001906001900390816118a55790505b50905060005b825181101561085c57600260008483815181106118e5576118e5613cde565b60200260200101518152602001908152602001600020604051806101a00160405290816000820154815260200160018201805461192190613cf4565b80601f016020809104026020016040519081016040528092919081815260200182805461194d90613cf4565b801561199a5780601f1061196f5761010080835404028352916020019161199a565b820191906000526020600020905b81548152906001019060200180831161197d57829003601f168201915b505050505081526020016002820180546119b390613cf4565b80601f01602080910402602001604051908101604052809291908181526020018280546119df90613cf4565b8015611a2c5780601f10611a0157610100808354040283529160200191611a2c565b820191906000526020600020905b815481529060010190602001808311611a0f57829003601f168201915b50505050508152602001600382018054611a4590613cf4565b80601f0160208091040260200160405190810160405280929190818152602001828054611a7190613cf4565b8015611abe5780601f10611a9357610100808354040283529160200191611abe565b820191906000526020600020905b815481529060010190602001808311611aa157829003601f168201915b50505050508152602001600482018054611ad790613cf4565b80601f0160208091040260200160405190810160405280929190818152602001828054611b0390613cf4565b8015611b505780601f10611b2557610100808354040283529160200191611b50565b820191906000526020600020905b815481529060010190602001808311611b3357829003601f168201915b5050509183525050600582015460208201526006820154604082015260078201546001600160a01b0381166060830152608090910190600160a01b900460ff166002811115611ba157611ba161388f565b6002811115611bb257611bb261388f565b815260200160088201548152602001600982018054611bd090613cf4565b80601f0160208091040260200160405190810160405280929190818152602001828054611bfc90613cf4565b8015611c495780601f10611c1e57610100808354040283529160200191611c49565b820191906000526020600020905b815481529060010190602001808311611c2c57829003601f168201915b50505050508152602001600a8201548152602001600b82018054611c6c90613cf4565b80601f0160208091040260200160405190810160405280929190818152602001828054611c9890613cf4565b8015611ce55780601f10611cba57610100808354040283529160200191611ce5565b820191906000526020600020905b815481529060010190602001808311611cc857829003601f168201915b505050505081525050828281518110611d0057611d00613cde565b60200260200101819052508080611d1690613d44565b9150506118c6565b815160208184018101805160048252928201918501919091209190528054829081106109c357600080fd5b60008381526002602052604090206007015483906001600160a01b03163314611d845760405162461bcd60e51b815260040161089f90613d5d565b6001600085815260026020819052604090912060070154600160a01b900460ff1690811115611db557611db561388f565b14611e135760405162461bcd60e51b815260206004820152602860248201527f50726f64756374206973206e6f7420696e2061207472616e7366657261626c656044820152671039ba30ba32902160c11b606482015260840161089f565b60008481526002602052604090206007810180546001600160a01b038681166001600160a01b03198316179092551690600b01611e508482613ddb565b50600883604051611e619190613cc2565b9081526040519081900360209081018220805460018181018355600092835292909120018790557f78cbce294cd2b9684326e81ec7570ecda73b7af29f2f11cd90cba3889d02fe24916113da918891859189918990613ef5565b6000611ec56136bf565b90506000604051806101a00160405280838152602001898152602001888152602001878152602001868152602001858152602001848152602001336001600160a01b0316815260200160006002811115611f2157611f2161388f565b81526000602080830182905260408051808301825283815281850152606084018390528051808301825283815260809094019390935285825260028152919020825181559082015191925082916001820190611f7d9082613ddb565b5060408201516002820190611f929082613ddb565b5060608201516003820190611fa79082613ddb565b5060808201516004820190611fbc9082613ddb565b5060a0820151600582015560c0820151600682015560e08201516007820180546001600160a01b039092166001600160a01b0319831681178255610100850151926001600160a81b03191617600160a01b83600281111561201f5761201f61388f565b0217905550610120820151600882015561014082015160098201906120449082613ddb565b50610160820151600a820155610180820151600b8201906120659082613ddb565b509050508160038960405161207a9190613cc2565b90815260200160405180910390208190555060048760405161209c9190613cc2565b908152604051908190036020908101822080546001810182556000918252919020018390556005906120cf908890613cc2565b90815260405190819003602090810182208054600181018255600091825291902001839055600690612102908790613cc2565b908152604051602091819003820181208054600181018255600091825290839020018490558381527f8bfed7c0004768df129b4900300816f8e85b8633621048ae882252021aa699b2910160405180910390a15050505050505050565b606060006005836040516121739190613cc2565b90815260408051918290036020908101832080548083028501830190935282845291908301828280156121c557602002820191906000526020600020905b8154815260200190600101908083116121b1575b505050505090506000815167ffffffffffffffff8111156121e8576121e861375f565b60405190808252806020026020018201604052801561222157816020015b61220e6136dd565b8152602001906001900390816122065790505b50905060005b825181101561085c576002600084838151811061224657612246613cde565b60200260200101518152602001908152602001600020604051806101a00160405290816000820154815260200160018201805461228290613cf4565b80601f01602080910402602001604051908101604052809291908181526020018280546122ae90613cf4565b80156122fb5780601f106122d0576101008083540402835291602001916122fb565b820191906000526020600020905b8154815290600101906020018083116122de57829003601f168201915b5050505050815260200160028201805461231490613cf4565b80601f016020809104026020016040519081016040528092919081815260200182805461234090613cf4565b801561238d5780601f106123625761010080835404028352916020019161238d565b820191906000526020600020905b81548152906001019060200180831161237057829003601f168201915b505050505081526020016003820180546123a690613cf4565b80601f01602080910402602001604051908101604052809291908181526020018280546123d290613cf4565b801561241f5780601f106123f45761010080835404028352916020019161241f565b820191906000526020600020905b81548152906001019060200180831161240257829003601f168201915b5050505050815260200160048201805461243890613cf4565b80601f016020809104026020016040519081016040528092919081815260200182805461246490613cf4565b80156124b15780601f10612486576101008083540402835291602001916124b1565b820191906000526020600020905b81548152906001019060200180831161249457829003601f168201915b5050509183525050600582015460208201526006820154604082015260078201546001600160a01b0381166060830152608090910190600160a01b900460ff1660028111156125025761250261388f565b60028111156125135761251361388f565b81526020016008820154815260200160098201805461253190613cf4565b80601f016020809104026020016040519081016040528092919081815260200182805461255d90613cf4565b80156125aa5780601f1061257f576101008083540402835291602001916125aa565b820191906000526020600020905b81548152906001019060200180831161258d57829003601f168201915b50505050508152602001600a8201548152602001600b820180546125cd90613cf4565b80601f01602080910402602001604051908101604052809291908181526020018280546125f990613cf4565b80156126465780601f1061261b57610100808354040283529160200191612646565b820191906000526020600020905b81548152906001019060200180831161262957829003601f168201915b50505050508152505082828151811061266157612661613cde565b6020026020010181905250808061267790613d44565b915050612227565b815160208184018101805160088252928201918501919091209190528054829081106109c357600080fd5b606060006007836040516126be9190613cc2565b908152604080519182900360209081018320805480830285018301909352828452919083018282801561271057602002820191906000526020600020905b8154815260200190600101908083116126fc575b505050505090506000815167ffffffffffffffff8111156127335761273361375f565b60405190808252806020026020018201604052801561276c57816020015b6127596136dd565b8152602001906001900390816127515790505b50905060005b825181101561085c576002600084838151811061279157612791613cde565b60200260200101518152602001908152602001600020604051806101a0016040529081600082015481526020016001820180546127cd90613cf4565b80601f01602080910402602001604051908101604052809291908181526020018280546127f990613cf4565b80156128465780601f1061281b57610100808354040283529160200191612846565b820191906000526020600020905b81548152906001019060200180831161282957829003601f168201915b5050505050815260200160028201805461285f90613cf4565b80601f016020809104026020016040519081016040528092919081815260200182805461288b90613cf4565b80156128d85780601f106128ad576101008083540402835291602001916128d8565b820191906000526020600020905b8154815290600101906020018083116128bb57829003601f168201915b505050505081526020016003820180546128f190613cf4565b80601f016020809104026020016040519081016040528092919081815260200182805461291d90613cf4565b801561296a5780601f1061293f5761010080835404028352916020019161296a565b820191906000526020600020905b81548152906001019060200180831161294d57829003601f168201915b5050505050815260200160048201805461298390613cf4565b80601f01602080910402602001604051908101604052809291908181526020018280546129af90613cf4565b80156129fc5780601f106129d1576101008083540402835291602001916129fc565b820191906000526020600020905b8154815290600101906020018083116129df57829003601f168201915b5050509183525050600582015460208201526006820154604082015260078201546001600160a01b0381166060830152608090910190600160a01b900460ff166002811115612a4d57612a4d61388f565b6002811115612a5e57612a5e61388f565b815260200160088201548152602001600982018054612a7c90613cf4565b80601f0160208091040260200160405190810160405280929190818152602001828054612aa890613cf4565b8015612af55780601f10612aca57610100808354040283529160200191612af5565b820191906000526020600020905b815481529060010190602001808311612ad857829003601f168201915b50505050508152602001600a8201548152602001600b82018054612b1890613cf4565b80601f0160208091040260200160405190810160405280929190818152602001828054612b4490613cf4565b8015612b915780601f10612b6657610100808354040283529160200191612b91565b820191906000526020600020905b815481529060010190602001808311612b7457829003601f168201915b505050505081525050828281518110612bac57612bac613cde565b60200260200101819052508080612bc290613d44565b915050612772565b60015460609060008167ffffffffffffffff811115612beb57612beb61375f565b604051908082528060200260200182016040528015612c2457816020015b612c116136dd565b815260200190600190039081612c095790505b50905060015b8281116130735760026000828152602001908152602001600020604051806101a001604052908160008201548152602001600182018054612c6a90613cf4565b80601f0160208091040260200160405190810160405280929190818152602001828054612c9690613cf4565b8015612ce35780601f10612cb857610100808354040283529160200191612ce3565b820191906000526020600020905b815481529060010190602001808311612cc657829003601f168201915b50505050508152602001600282018054612cfc90613cf4565b80601f0160208091040260200160405190810160405280929190818152602001828054612d2890613cf4565b8015612d755780601f10612d4a57610100808354040283529160200191612d75565b820191906000526020600020905b815481529060010190602001808311612d5857829003601f168201915b50505050508152602001600382018054612d8e90613cf4565b80601f0160208091040260200160405190810160405280929190818152602001828054612dba90613cf4565b8015612e075780601f10612ddc57610100808354040283529160200191612e07565b820191906000526020600020905b815481529060010190602001808311612dea57829003601f168201915b50505050508152602001600482018054612e2090613cf4565b80601f0160208091040260200160405190810160405280929190818152602001828054612e4c90613cf4565b8015612e995780601f10612e6e57610100808354040283529160200191612e99565b820191906000526020600020905b815481529060010190602001808311612e7c57829003601f168201915b5050509183525050600582015460208201526006820154604082015260078201546001600160a01b0381166060830152608090910190600160a01b900460ff166002811115612eea57612eea61388f565b6002811115612efb57612efb61388f565b815260200160088201548152602001600982018054612f1990613cf4565b80601f0160208091040260200160405190810160405280929190818152602001828054612f4590613cf4565b8015612f925780601f10612f6757610100808354040283529160200191612f92565b820191906000526020600020905b815481529060010190602001808311612f7557829003601f168201915b50505050508152602001600a8201548152602001600b82018054612fb590613cf4565b80601f0160208091040260200160405190810160405280929190818152602001828054612fe190613cf4565b801561302e5780601f106130035761010080835404028352916020019161302e565b820191906000526020600020905b81548152906001019060200180831161301157829003601f168201915b505050505081525050826001836130459190613f4b565b8151811061305557613055613cde565b6020026020010181905250808061306b90613d44565b915050612c2a565b5092915050565b60008281526002602052604090206007015482906001600160a01b031633146130b55760405162461bcd60e51b815260040161089f90613d5d565b6001600084815260026020819052604090912060070154600160a01b900460ff16908111156130e6576130e661388f565b1461313f5760405162461bcd60e51b8152602060048201526024808201527f50726f64756374206973206e6f7420696e20612072656365697661626c6520736044820152637461746560e01b606482015260840161089f565b60008381526002602090815260409182902060078101805460ff60a01b1916600160a11b179055600a0184905581518581529081018490527fc8f5eb31509c8b3ee3d8664353f5e52ae2d5c1da0316e7b2ba6d82463630a828910161098b565b606060006004836040516131b39190613cc2565b908152604080519182900360209081018320805480830285018301909352828452919083018282801561320557602002820191906000526020600020905b8154815260200190600101908083116131f1575b505050505090506000815167ffffffffffffffff8111156132285761322861375f565b60405190808252806020026020018201604052801561326157816020015b61324e6136dd565b8152602001906001900390816132465790505b50905060005b825181101561085c576002600084838151811061328657613286613cde565b60200260200101518152602001908152602001600020604051806101a0016040529081600082015481526020016001820180546132c290613cf4565b80601f01602080910402602001604051908101604052809291908181526020018280546132ee90613cf4565b801561333b5780601f106133105761010080835404028352916020019161333b565b820191906000526020600020905b81548152906001019060200180831161331e57829003601f168201915b5050505050815260200160028201805461335490613cf4565b80601f016020809104026020016040519081016040528092919081815260200182805461338090613cf4565b80156133cd5780601f106133a2576101008083540402835291602001916133cd565b820191906000526020600020905b8154815290600101906020018083116133b057829003601f168201915b505050505081526020016003820180546133e690613cf4565b80601f016020809104026020016040519081016040528092919081815260200182805461341290613cf4565b801561345f5780601f106134345761010080835404028352916020019161345f565b820191906000526020600020905b81548152906001019060200180831161344257829003601f168201915b5050505050815260200160048201805461347890613cf4565b80601f01602080910402602001604051908101604052809291908181526020018280546134a490613cf4565b80156134f15780601f106134c6576101008083540402835291602001916134f1565b820191906000526020600020905b8154815290600101906020018083116134d457829003601f168201915b5050509183525050600582015460208201526006820154604082015260078201546001600160a01b0381166060830152608090910190600160a01b900460ff1660028111156135425761354261388f565b60028111156135535761355361388f565b81526020016008820154815260200160098201805461357190613cf4565b80601f016020809104026020016040519081016040528092919081815260200182805461359d90613cf4565b80156135ea5780601f106135bf576101008083540402835291602001916135ea565b820191906000526020600020905b8154815290600101906020018083116135cd57829003601f168201915b50505050508152602001600a8201548152602001600b8201805461360d90613cf4565b80601f016020809104026020016040519081016040528092919081815260200182805461363990613cf4565b80156136865780601f1061365b57610100808354040283529160200191613686565b820191906000526020600020905b81548152906001019060200180831161366957829003601f168201915b5050505050815250508282815181106136a1576136a1613cde565b602002602001018190525080806136b790613d44565b915050613267565b60018054600091826136d083613d44565b9190505550600154905090565b604051806101a001604052806000815260200160608152602001606081526020016060815260200160608152602001600081526020016000815260200160006001600160a01b031681526020016000600281111561373d5761373d61388f565b8152602001600081526020016060815260200160008152602001606081525090565b634e487b7160e01b600052604160045260246000fd5b600082601f83011261378657600080fd5b813567ffffffffffffffff808211156137a1576137a161375f565b604051601f8301601f19908116603f011681019082821181831017156137c9576137c961375f565b816040528381528660208588010111156137e257600080fd5b836020870160208301376000602085830101528094505050505092915050565b60006020828403121561381457600080fd5b813567ffffffffffffffff81111561382b57600080fd5b61383784828501613775565b949350505050565b60005b8381101561385a578181015183820152602001613842565b50506000910152565b6000815180845261387b81602086016020860161383f565b601f01601f19169290920160200192915050565b634e487b7160e01b600052602160045260246000fd5b600381106138c357634e487b7160e01b600052602160045260246000fd5b9052565b60006101a08251845260208301518160208601526138e782860182613863565b915050604083015184820360408601526139018282613863565b9150506060830151848203606086015261391b8282613863565b915050608083015184820360808601526139358282613863565b91505060a083015160a085015260c083015160c085015260e083015161396660e08601826001600160a01b03169052565b506101008084015161397a828701826138a5565b50506101208381015190850152610140808401518583038287015261399f8382613863565b9250505061016080840151818601525061018080840151858303828701526139c78382613863565b9695505050505050565b6000602080830181845280855180835260408601915060408160051b870101925083870160005b82811015613a2657603f19888603018452613a148583516138c7565b945092850192908501906001016139f8565b5092979650505050505050565b60008060408385031215613a4657600080fd5b50508035926020909101359150565b60008060408385031215613a6857600080fd5b823567ffffffffffffffff811115613a7f57600080fd5b613a8b85828601613775565b95602094909401359450505050565b602081526000613aad60208301846138c7565b9392505050565b600060208284031215613ac657600080fd5b5035919050565b8d81526101a060208201526000613ae86101a083018f613863565b8281036040840152613afa818f613863565b90508281036060840152613b0e818e613863565b90508281036080840152613b22818d613863565b90508a60a08401528960c0840152613b4560e084018a6001600160a01b03169052565b613b536101008401896138a5565b86610120840152828103610140840152613b6d8187613863565b905084610160840152828103610180840152613b898185613863565b9150509e9d5050505050505050505050505050565b600080600060608486031215613bb357600080fd5b8335925060208401356001600160a01b0381168114613bd157600080fd5b9150604084013567ffffffffffffffff811115613bed57600080fd5b613bf986828701613775565b9150509250925092565b60008060008060008060c08789031215613c1c57600080fd5b863567ffffffffffffffff80821115613c3457600080fd5b613c408a838b01613775565b97506020890135915080821115613c5657600080fd5b613c628a838b01613775565b96506040890135915080821115613c7857600080fd5b613c848a838b01613775565b95506060890135915080821115613c9a57600080fd5b50613ca789828a01613775565b9350506080870135915060a087013590509295509295509295565b60008251613cd481846020870161383f565b9190910192915050565b634e487b7160e01b600052603260045260246000fd5b600181811c90821680613d0857607f821691505b602082108103613d2857634e487b7160e01b600052602260045260246000fd5b50919050565b634e487b7160e01b600052601160045260246000fd5b600060018201613d5657613d56613d2e565b5060010190565b6020808252601590820152742cb7ba9030b932903737ba103a34329037bbb732b960591b604082015260600190565b601f821115613dd657600081815260208120601f850160051c81016020861015613db35750805b601f850160051c820191505b81811015613dd257828155600101613dbf565b5050505b505050565b815167ffffffffffffffff811115613df557613df561375f565b613e0981613e038454613cf4565b84613d8c565b602080601f831160018114613e3e5760008415613e265750858301515b600019600386901b1c1916600185901b178555613dd2565b600085815260208120601f198616915b82811015613e6d57888601518255948401946001909101908401613e4e565b5085821015613e8b5787850151600019600388901b60f8161c191681555b5050505050600190811b01905550565b8581526001600160a01b038581166020830152841660408201526000613ec460608301856138a5565b60c06080830152613ed860c0830184613863565b82810360a084015260008152602081019150509695505050505050565b8581526001600160a01b038581166020830152841660408201526000613f1e60608301856138a5565b60c06080830152600060c083015260e060a0830152613f4060e0830184613863565b979650505050505050565b81810381811115613f5e57613f5e613d2e565b9291505056fea264697066735822122067c6e2f4c0b122cc5a3fb01bb6fbf2e804f44cffe7707883cf6c52276550052664736f6c63430008130033",
  "linkReferences": {},
  "deployedLinkReferences": {}
}